:020000040800F2
:1000000000180020912A0008D9050008DB05000827
:1000100000000000000000000000000000000000E0
:10002000000000000000000000000000DD050008E6
:100030000000000000000000DF050008E1050008E6
:10004000112B000800000000112B0008112B0008E4
:10005000112B0008112B0008112B0008112B000890
:1000600000000000112B0008E9050008112B000812
:10007000112B0008112B0008112B000800000000B4
:10008000F90500080000000000000000112B000826
:1000900000000000112B0008112B0008112B000894
:1000A00000000000112B000800000000112B0008C8
:1000B000112B00080000000000000000112B0008B8
:1000C00010B5064C2378002B07D1054B002B02D02E
:1000D000044800E000BF0123237010BDFC05002090
:1000E00000000000042D0008044B10B5002B03D0C5
:1000F0000349044800E000BF10BDC04600000000F6
:1001000000060020042D0008002243088B4274D30F
:1001100003098B425FD3030A8B4244D3030B8B4208
:1001200028D3030C8B420DD3FF22090212BA030C11
:100130008B4202D31212090265D0030B8B4219D3F2
:1001400000E0090AC30B8B4201D3CB03C01A524112
:10015000830B8B4201D38B03C01A5241430B8B425A
:1001600001D34B03C01A5241030B8B4201D30B0343
:10017000C01A5241C30A8B4201D3CB02C01A52416A
:10018000830A8B4201D38B02C01A5241430A8B422D
:1001900001D34B02C01A5241030A8B4201D30B0216
:1001A000C01A5241CDD2C3098B4201D3CB01C01A30
:1001B000524183098B4201D38B01C01A524143093A
:1001C0008B4201D34B01C01A524103098B4201D328
:1001D0000B01C01A5241C3088B4201D3CB00C01A95
:1001E000524183088B4201D38B00C01A524143080D
:1001F0008B4201D34B00C01A5241411A00D2014632
:10020000524110467047FFE701B5002000F006F8A4
:1002100002BDC0460029F7D076E770477047C04658
:1002200000B583B0094A51690123194351615269EC
:1002300013400193019B002200210A2000F058FB8B
:100240000A2000F085FB03B000BDC046001002404C
:1002500010B588B01422002103A802F07DFC184BD1
:1002600059698020C003014359615A6902400092D4
:10027000009A596980208002014359615A690240FD
:100280000192019A5A698021C9020A435A615B6945
:100290000B400293029B9024E4050022422120009F
:1002A00000F0FCFC42230393413B0493002305939D
:1002B0000333069303A9200000F028FC08B010BD0A
:1002C0000010024010B51448144B0360144B4360F7
:1002D000002383600122C260036143618361C361C3
:1002E000036200F0E1FC00280CD100210A4800F074
:1002F00041FD002809D10021074800F067FD0028D2
:1003000006D110BD00F044F8EFE700F041F8F2E745
:1003100000F03EF8F5E7C046180600200054004003
:100320000E09002010B588B004001422002103A893
:1003300002F012FC2268144B9A4201D008B010BDA2
:10034000124C6269802189020A43626163690B4031
:100350000193019BC023DB00039312230493113B01
:1003600005930233069301330793902003A9C00538
:1003700000F0CCFBE269802189030A43E261E36972
:100380000B400293029BD9E700540040001002404A
:1003900072B6FEE700B597B0302200210AA802F03D
:1003A000DBFB1022002106A802F0D6FB142200215C
:1003B00001A802F0D1FB03230A93023B0B930D9398
:1003C0000F330E930E3B129380235B021393802313
:1003D000DB0214930AA800F023FD002817D107239D
:1003E0000693053B0793002308930993012106A870
:1003F00000F0AEFF00280CD12023019300230493CA
:1004000001A801F055F8002805D117B000BDFFF78D
:10041000BFFFFFF7BDFFFFF7BBFF000010B582B0C5
:1004200000F032FAFFF7B6FFFFF712FFFFF7F8FE12
:10043000FFF748FF00F054F900F0AEF900F05AF869
:10044000284801F051FD02F083FA20240BE010232C
:1004500000930D3B22000621672002F0F1F9FA20FB
:10046000800000F033FA02F08BF900220021002016
:1004700002F044FA01220021122002F03FFA022287
:100480000021242002F03AFA03220021362002F053
:1004900035FA04220021482002F030FA052200211A
:1004A0005A2002F02BFA062200216C2002F026FAD4
:1004B0000D4A0321002002F009FA0C4A062100200F
:1004C00002F004FA0A4A06213F2002F0FFF9220056
:1004D0000621302002F076F90134E4B27E2CB6D940
:1004E0002024B4E70C0700201C2D00082C2D000848
:1004F000342D000810B51148114B036082235B00B6
:10050000436000238360E022D200C2600361436144
:100510008022D20282612022C2610362436283622E
:10052000193AC26203630833436301F07FF900287C
:1005300000D110BDFFF72CFFFBE7C046640600208A
:100540000030014010B588B004001422002103A837
:1005500002F002FB2268124B9A4201D008B010BD93
:10056000104B996980204001014399619A690240CA
:100570000192019A5A69802189020A435A615B6992
:100580000B400293029BB0230393AE3B04930133D1
:100590000693902003A9C00500F0B8FADEE7C04634
:1005A000003001400010024082B00A4B99690122DC
:1005B0001143996199690A400092009ADA69802191
:1005C00049050A43DA61DB690B400193019B02B0E4
:1005D0007047C04600100240FEE7FEE770477047D4
:1005E00010B500F061F910BD10B5024800F039FAFD
:1005F00010BDC046C806002010B5024801F059FBE6
:1006000010BDC0460C0700207047000010B582B036
:1006100004001B4B02689A4201D002B010BD194A77
:10062000D16902231943D161D26913400193019B1F
:100630001548164B0360102343600023836080221B
:10064000C2608132FF320261802212014261836105
:10065000C0239B01C36100F0B7F900280DD10A4BFC
:1006600023635C6223625C6200220021102000F0A0
:100670003FF9102000F06CF9CFE7FFF789FEEEE7B5
:100680000004004000100240C80600203000024074
:1006900010B586B004001422002101A802F05CFA13
:1006A00022680C4B9A4201D006B010BD0A4A51692B
:1006B0008020C00201435161536903400093009BB5
:1006C000022301930293013B059301A9034800F023
:1006D0001DFAE9E700040040001002400004004851
:1006E00000B58FB0102200210AA802F035FA0822C6
:1006F000002108A802F030FA1C22002101A802F013
:100700002BFA2348234B03600023436083603B2282
:10071000C2600361836101F0BBFB002828D1802304
:100720005B010A930AA91A4801F0C6FC002822D1ED
:10073000174801F0D9FB002820D100230893099322
:1007400008A9134801F0BCFD00281AD160230193C9
:1007500000230293039305930C2201A90C4801F096
:100760002FFC002810D10A48FFF792FF0FB000BD00
:10077000FFF70EFED3E7FFF70BFED9E7FFF708FE02
:10078000DBE7FFF705FEE1E7FFF702FEEBE7C04618
:100790000C0700200004004010B50C480C4B03600F
:1007A000E1235B02436000238360C36003610C228A
:1007B00042618361C3610362436201F06FFF0028FD
:1007C00000D110BDFFF7E4FDFBE7C0465407002051
:1007D0000044004010B588B004001422002103A892
:1007E00002F0BAF92268124B9A4201D008B010BD4B
:1007F000104BD969802292021143D961D969114005
:10080000019101995969114359615B691A4002923A
:10081000029B0C2303930A3B049301330693023B90
:100820000793902003A9C00500F070F9DEE7C046E9
:10083000004400400010024010B504000F4B19782E
:10084000FA208000FFF760FC01000D4B1868FFF7ED
:100850005BFC00F089F800280DD1032C01D90120A0
:100860000AE0013000222100404200F041F8054B2F
:100870001C60002000E0012010BDC04604000020E4
:10088000000000200800002010B5064A136810215F
:100890000B4313600020FFF7CFFFFFF785FE00201A
:1008A00010BDC04600200240034A1168034B1B786C
:1008B0005B1813607047C046D80700200400002072
:1008C000014B18687047C046D807002070B5040077
:1008D000FFF7F6FF0500631C02D0044B1B78E418F9
:1008E000FFF7EEFF401BA042FAD370BD04000020CA
:1008F00070B5002811DB8308134EC0339B009D594F
:1009000003242040C000FF2214008440A543890135
:100910000A4082402A439A5170BD0F230340083B8E
:100920009B0806339B00094A944663445C68032293
:100930001040C000FC3215008540AC4389010A40DC
:10094000824022435A60E7E700E100E000ED00E06A
:10095000002805DB1F2318401E3B8340014A13601B
:100960007047C04600E100E0013880235B049842F4
:100970000FD2094A50600948036A1B021B0AC021B2
:1009800009060B43036200239360073313600020C2
:1009900070470120FCE7C04610E000E000ED00E0F9
:1009A00010B504000368064A9446634418001421F5
:1009B000FFF7AAFB80002064024BE36310BDC04632
:1009C000F8FFFDBF0000024070B5041E20D02125B5
:1009D0000223435501680B680E4A1A404368806839
:1009E0000343E06803432069034360690343A0694C
:1009F0000343E069034313430B602000FFF7D0FF7C
:100A00000023A363012262551F32A354002070BD4E
:100A10000120FCE70FC0FFFF10B52123C35C022BB0
:100A200003D004238363012010BD026813680E21E4
:100A30008B43136001680A6801239A430A60C26B02
:100A40001900046CA1405160212283541F330022FD
:100A5000C254436B002B02D098470020E4E70020EB
:100A6000E2E770B5C36B1A6804682568016C04235B
:100A70008B401A4212D06B0710D523689B0603D413
:100A80002368042293432360C26B0423016C8B40D0
:100A90005360C36A002B00D0984770BD02238B407F
:100AA0001A4218D0AB0716D523689B0606D42368D4
:100AB0000A22934323602123093AC254C26B0223C2
:100AC000016C8B40536020230022C254836A002BA8
:100AD000E3D09847E1E708238B401A42DDD02B078B
:100AE000DBD523680E2293432360C26B01231900D8
:100AF000046CA14051608363212283541F33002280
:100B0000C254036B002BC8D09847C6E7F0B5CE4659
:100B1000474680B583B0002333E0032600E000267B
:100B2000A64034003C4302329200564E9451564A3D
:100B30001468EA432600AE434F68FF0301D52C43F7
:100B40002600514C26606468260016404F68BF039B
:100B500001D52C4326004C4C6660A4682600164044
:100B60004F68FF0201D52C432600474CA660E4687D
:100B700022404E68B60201D52A002243424CE26070
:100B800001330C682200DA4077D001229A40250018
:100B900015401442F4D04C68661E012E03D9112C66
:100BA00001D0122C12D184685F000326BE40B443EA
:100BB0002600CC68BC4034438460446894434A684F
:100BC0001609012232409A4022434260C4685F0005
:100BD0000326BE40F2439446B44326008C68BC40D2
:100BE0003443C4604A68022A01D0122A10D1DE08B8
:100BF0000836B2009146145807221A4092000F2678
:100C00009640B4430E699640320022434C4622502F
:100C100004686246144003224E683240BA402243C0
:100C200002604A68D200ABD5184CA669012216436F
:100C3000A661A46922400192019A9A08941CA4001A
:100C4000104EA75903241C40A4000F26A640B7430A
:100C50009026F605B04200D161E70D4EB04208D0B3
:100C60000C4EB04207D00C4EB04200D155E70526DD
:100C700056E7012654E7022652E703B0C0BCB94646
:100C8000B046F0BD000001400004014000100240E9
:100C90000004004800080048000C0048002A01D069
:100CA000816170478162FCE710B5041E59D0412371
:100CB000C35C002B43D041232422E25422681368F2
:100CC00001218B4313602268274B61680B4013613D
:100CD0002268936825490B409360E368012B34D068
:100CE000226884231B02A1680B439360E368022BF4
:100CF00032D0226851681E4B0B4353602268D36880
:100D00001A490B40D360236962691343A269120236
:100D100021681343CB602268E369216A0B431360A7
:100D20002268136801210B4313600023636441228E
:100D30001F31A15423630132A354002010BD40335E
:100D40000022C254FFF7EEFAB5E7226880231B02A7
:100D5000A1680B439360C9E72368802212015A609F
:100D6000C7E70120EAE7C046FFFFFFF0FF7FFFFF74
:100D700000800002F0B54123C35C202B20D120333A
:100D8000C35C012B1ED0402401220255412524239F
:100D900043550668336893433360066833680A4FE7
:100DA0003B403360066833681943316001680B6863
:100DB00013430B6020234355002303550020F0BD4F
:100DC0000220FCE70220FAE7FFEFFFFFF0B5412326
:100DD000C35C202B1ED12033C35C012B1CD04024CC
:100DE0000122025541252423435506683368934365
:100DF000336006683368094F3B400902194331608C
:100E000001680B6813430B602023435500230355EF
:100E10000020F0BD0220FCE70220FAE7FFF0FFFF10
:100E200070B582B0041E00D138E20368DB072BD511
:100E3000B34B5A680C231340042B1DD0B04B5A6897
:100E40000C231340082B0ED06368012B41D0002BDC
:100E500056D1AB4B1A68AB490A401A601A68AA49C6
:100E60000A401A603BE0A64B5B68C0225202134066
:100E7000802252029342E7D1A14B1B689B0303D50A
:100E80006368002B00D10CE223689B0777D59C4B4D
:100E90005B680C221A4262D0994B5A680C231340AB
:100EA000082B53D0E368002B00D18AE0944A1368E2
:100EB00001210B431360FFF703FD0500904B1B68F6
:100EC0009B0775D4FFF7FCFC401B0228F6D90320D2
:100ED000E5E18B4A116880235B020B431360636872
:100EE000002B25D0FFF7ECFC0500854B1B689B030E
:100EF000CAD4FFF7E5FC401B6428F6D90320CEE1F5
:100F0000052B09D07E4B1A687E490A401A601A6880
:100F10007D490A401A60E2E7794B19688022D202C3
:100F20000A431A601968802252020A431A60D6E7FF
:100F3000FFF7C6FC0500724B1B689B03A4D5FFF7A7
:100F4000BFFC401B6428F6D90320A8E16C4B5B680A
:100F5000C02252021340802212029342A2D1684B57
:100F60001B689B0703D5E368012B00D09BE1644914
:100F70000B68F82293432269D20013430B60236865
:100F80001B0744D5E369002B2ED05D4A536A01212B
:100F90000B435362FFF794FC0500594B5B6A9B07B8
:100FA00035D4FFF78DFC401B0228F6D9032076E1EB
:100FB00053490B68F82293432269D20013430B6014
:100FC000DDE74F4A136801218B431360FFF778FC7C
:100FD00005004B4B1B689B07D1D5FFF771FC401BED
:100FE0000228F6D903205AE1454A536A01218B436E
:100FF0005362FFF765FC0500414B5B6A9B0706D512
:10100000FFF75EFC401B0228F6D9032047E1236866
:101010005B0700D480E03A4BDB69DB001DD4384A23
:10102000D169802040050143D161D3690340019318
:10103000019B0125354B1B68DB0510D5A368012BEF
:1010400021D0002B36D12E4B1A6A01218A431A6215
:101050001A6A03318A431A621AE00025EAE72B4A2A
:10106000116880235B000B431360FFF729FC060027
:10107000264B1B68DB05E1D4FFF722FC801B6428AC
:10108000F6D903200BE11E4A136A01210B431362B8
:10109000A368002B24D0FFF713FC0600184B1B6A33
:1010A0009B0737D4FFF70CFC801B194B9842F5D9EE
:1010B0000320F4E0052B09D0114B1A6A01218A4361
:1010C0001A621A6A03318A431A62E1E70C4B1A6A00
:1010D00004210A431A621A6A03390A431A62D7E7DB
:1010E000FFF7EEFB0600064B1B6A9B0712D5FFF7C6
:1010F000E7FB801B064B9842F5D90320CFE0C046A2
:1011000000100240FFFFFEFFFFFFFBFF00700040EA
:1011100088130000012D33D02368DB0610D56369E6
:10112000012B33D0053351D1654A536B04218B43D6
:101130005363536BF4318B43A169C9000B43536371
:10114000236A002B00D1B0E05D4A51680C220A40AE
:10115000082A00D18AE0022B4FD0594A1368594916
:101160000B401360FFF7ACFB0400554B1B689B0161
:101170007AD5FFF7A5FB001B0228F6D903208EE0E5
:101180004F4AD36950490B40D361C5E74C4B5A6B6A
:1011900004210A435A635A6B03390A435A63FFF71F
:1011A0008FFB0500464B5B6B9B0706D4FFF788FB64
:1011B000401B0228F6D9032071E041494B6BF8220D
:1011C0009343A269D20013434B63B9E73C4B5A6B7C
:1011D00004210A435A635A6B03398A435A63FFF75F
:1011E0006FFB0500364B5B6B9B07A9D5FFF768FBD0
:1011F000401B0228F6D9032051E0314A13683149D7
:101200000B401360FFF75CFB05002D4B1B689B0137
:1012100006D5FFF755FB401B0228F6D903203EE018
:10122000274BDA6A0F218A43E16A0A43DA625A6875
:1012300026490A40A16A606A01430A435A60196854
:10124000802252040A431A60FFF73AFB04001C4B49
:101250001B689B0106D4FFF733FB001B0228F6D95D
:1012600003201CE000201AE0002018E0012B1ED013
:10127000134B5A68D96AC0235B021340606A8342E9
:1012800017D10F230B40E16A8B4214D1F0239B034B
:101290001A40A36A9A4210D1002000E0012002B057
:1012A00070BD0120FBE70120F9E70020F7E70120EE
:1012B000F5E70120F3E70120F1E70120EFE7C04661
:1012C00000100240FFFFFFFEFFFFFFEFFF7FC2FFA6
:1012D00010B588B004AA194B13CB13C21B68136056
:1012E0006A46174B13CB13C21B681360154B5A6821
:1012F0000C231340042B1CD0082B1CD1910C07335A
:10130000194004A8445C0F49C96A0B406946C95C8E
:10131000C0235B021A4080235B029A4204D00A4831
:10132000FEF7F2FE604307E00848FEF7EDFE60437B
:1013300002E0064800E0044808B010BD542D000843
:10134000682D00080010024000127A000024F4000A
:1013500070B504000D00002800D17EE0434B1A68F0
:10136000012313408B420AD240490B680122934368
:101370002B430B600B681A40AA4200D06FE0236831
:101380009A070ED55B0705D5394A5168E023DB0083
:101390000B435360364A5368F0218B43A1680B43DB
:1013A00053602368DB072DD56368012B1ED0022B09
:1013B00022D02F4A1268920753D52D494A6803203C
:1013C000824313434B60FFF77BFA0600284B5B68B0
:1013D0000C221A4063689B009A4213D0FFF770FA00
:1013E000801B244B9842F1D9032035E0204A126833
:1013F0009203E2D401202FE01D4A12689201DCD44E
:10140000012029E0194B1A6801231340AB4209D986
:1014100016490B68012293432B430B600B681A405B
:10142000AA4220D123685B0706D5114A53681249A6
:101430000B40E1680B435360FFF74AFF0C4B5A68BF
:1014400012090F2313400D4AD35CD8400C4B18608F
:101450000020FFF7F1F9002070BD0120FCE701201A
:10146000FAE70120F8E70120F6E7C0460020024035
:101470000010024088130000FFF8FFFF3C2D000819
:1014800000000020014B18687047C0460000002093
:1014900010B5FFF7F7FF044B5A68120A07231340F1
:1014A000024AD35CD84010BD001002404C2D000809
:1014B00070B582B004000368DB0337D5424BDB69AB
:1014C000DB0053D4404AD169802040050143D161FB
:1014D000D36903400193019B01253C4B1B68DB054D
:1014E00046D5394B1A6AC0239B00110019401A4295
:1014F00013D0626813408B420FD0334B186A344AC2
:1015000002401E6A8021490231431962196A314E34
:10151000314019621A62C3073ED42B4A136A2C4920
:101520000B4061680B431362012D44D02368DB0735
:1015300006D5254A136B03218B43A1680B43136324
:1015400023689B0606D5204A136B10218B43E16864
:101550000B43136323689B0332D51B4A136B802113
:101560008B4321690B43136300202AE00025B4E775
:10157000164A116880235B000B431360FFF7A0F944
:101580000600124B1B68DB05ABD4FFF799F9801BF3
:101590006428F6D9032014E0FFF792F906000A4BFD
:1015A0001B6A9B07B9D4FFF78BF9801B0A4B984243
:1015B000F5D9032005E0D36908490B40D361B5E7AD
:1015C000002002B070BDC046001002400070004014
:1015D000FFFCFFFFFFFFFEFF88130000FFFFFFEF90
:1015E000F0B5D6464F464646C0B582B006000D005F
:1015F00090461F00FFF764F90A9B181A8146B94408
:10160000FFF75EF982462E4B1B685B011B0D4A46B5
:101610005343019333689C682C40641B63425C41D4
:10162000444545D07B1CF5D0FFF74AF95346C01A14
:1016300048450BD24B46002B08D0019A002A00D017
:101640004A46019B013B01939146E3E732685368A8
:10165000E0218B43536082235B0072689A420CD076
:1016600080239B01B26A9A4216D05D230122F25474
:10167000013B0022F25403201BE0B36880221202D7
:10168000934203D08022D2009342E9D1326813689A
:1016900040218B431360E3E73268136809490B402C
:1016A00013603268116880239B010B431360DCE7F1
:1016B000002002B0E0BCBA46B146A846F0BDC04624
:1016C00000000020FFDFFFFFF0B5D6464F4646463C
:1016D000C0B582B007000D0016009846FFF7F0F87D
:1016E0000A9B181A40448146FFF7EAF88246334BBA
:1016F0001A6893009A18D3009B1A1B0D4A4653434D
:10170000019302E0434601330CD13B689C682C40B6
:10171000B4424BD0C022D2009542F3D1002EF1D179
:101720001B7BEFE7FFF7CCF85346C01A48450BD2B6
:101730004B46002B08D0019A002A00D04A46019B54
:10174000013B01939146E0E73A685368E0218B43FF
:10175000536082235B007A689A420CD080239B01FD
:10176000BA6A9A4216D05D230122FA54013B002244
:10177000FA5403201BE0BB6880221202934203D07C
:101780008022D2009342E9D13A68136840218B430A
:101790001360E3E73A68136809490B4013603A683D
:1017A000116880239B010B431360DCE7002002B02B
:1017B000E0BCBA46B146A846F0BDC04600000020D5
:1017C000FFDFFFFF70B582B004000D001600C021DE
:1017D00000922B0000224901FFF776FF002818D164
:1017E00000962B00002280212000FFF7F9FE002840
:1017F00016D1C02100962B000022C9002000FFF75F
:1018000063FF00280AD0236E20221343236603209F
:1018100004E0236E202213432366032002B070BD30
:10182000236E2022134323660320F7E770B5041EBE
:1018300000D178E0436A002B07D10533FF334268BB
:101840009A4205D00023C36102E000230361436193
:101850000023A3625D33E35C002B5AD05D23022298
:10186000E2542268136840218B431360E368E0224E
:10187000D200934254D90022F02109018B4205D0B5
:10188000E021C9008B4201D00023A36282235B00C8
:1018900061680B4084210902A06801400B430221CA
:1018A000206901400B430121606908400343802007
:1018B0008000A569284003433820E5692840034398
:1018C0008020256A2840034380208001A56A2840A3
:1018D000034320680360608B042303401020656A83
:1018E000284003430820656B28400343F020000193
:1018F000E568284003432068134343602268D369A6
:101900000A480340D361002323665D33E15400207D
:1019100070BD5C330022E2542000FEF713FE9DE709
:1019200080225201A8E70120F2E7C046FFF7FFFF3F
:10193000F0B5CE4600B584B00400019191461D007B
:101940005C23C35C012B00D1C9E05C230122C2549B
:10195000FEF7B6FF06005D23E35CDFB2012B00D08B
:10196000A9E00199002900D1A6E04B46002B00D147
:10197000A2E05D230322E25400232366A1634A46CA
:10198000A287E28723644422A3520232A352236532
:10199000E36480231B02A2689A421ED023681A685F
:1019A000520603D41A6840210A431A60E023DB0080
:1019B000E2689A4239D96368002B02D04B46012B6A
:1019C00020D12368A26B1288DA60A36B0233A36371
:1019D000E38F013B9BB2E38714E022681368402148
:1019E0008B431360226811688023DB010B43136073
:1019F000D4E7FEF765FF801BA84201D36B1C66D1BC
:101A0000002D66D0E18F89B200293CD023689A6806
:101A10009207EED5A26B1288DA60A36B0233A36340
:101A2000E38F013B9BB2E387ECE76368002B02D0B6
:101A30004B46012B14D1A36B1B7822681373A36B45
:101A40000133A363E38F013B9BB2E38708E0FEF71A
:101A500037FF801BA84201D36B1C3CD1002D3CD02A
:101A6000E18F89B200290ED023689A689207EED5DB
:101A7000A26B12781A73A36B0133A363E38F013B4C
:101A80009BB2E387ECE7320029002000FFF79AFEC3
:101A9000002801D020232366A368002B06D10393DE
:101AA0002368DA6803929B680393039B236E002BE1
:101AB00002D1002700E002275D230122E254013B0E
:101AC0000022E254380004B080BCB946F0BD0327C0
:101AD000F2E70327F0E70327EEE70327ECE7022707
:101AE000F0E7000030B5036A012293430362036A02
:101AF000426884697325AC430D682C430225AB43CF
:101B00008D682B43114DA84205D0114DA84202D03B
:101B1000104DA84205D10825AB43CD682B430425C1
:101B2000AB430A4DA84205D0094DA84202D0094D49
:101B3000A84205D1084D2A404D692A438D692A43A0
:101B4000426084614A684263036230BD002C0140F8
:101B50000044014000480140FFFCFFFF70B5036AEC
:101B6000184A13400362036A4468C2697325AA4392
:101B70000E681643144A13408A6812021343134A2C
:101B8000904216D0114A904205D0114A904202D09C
:101B9000104A904207D1104A22404C692401144354
:101BA0008A6915012C434460C6614A68C2630362B6
:101BB00070BD0A4A1A40CB681B021343084A1340FF
:101BC000E0E7C046FFFEFFFFFFFDFFFF002C0140E6
:101BD0000044014000480140FFCFFFFFFFF7FFFF37
:101BE000FFFBFFFF30B5036A114A13400362036A2B
:101BF0004568C2690F4C22400C68240222430E4CF7
:101C00001C408B681B0323430C4CA04205D00C4C9A
:101C1000A04202D00B4CA04204D10B4C25404C6991
:101C2000A40125434560C2614A680264036230BD75
:101C3000FFEFFFFFFF8CFFFFFFDFFFFF002C0140E6
:101C40000044014000480140FFBFFFFF30B5036A78
:101C5000046A0125AC4304628469EF35AC43120188
:101C600022430A24A3430B438261036230BD000078
:101C700030B5036A1024A34303628469036A054DE7
:101C80002C4012032243A024A3430901194382617B
:101C9000016230BDFF0FFFFF8368702293430B4347
:101CA00007210B4383607047704770477047704748
:101CB000704710B5040003681A6992070FD5DA68F7
:101CC00092070CD5032252421A610123037703685D
:101CD0009B699B0763D0FFF7EAFF00232377236804
:101CE0001A69520712D5DA6852070FD505225242F7
:101CF0001A610223237723689A69C0239B001A4242
:101D000053D02000FFF7D3FF0023237723681A69FD
:101D1000120710D5DA6812070DD5092252421A614E
:101D2000042323772368DB699B0745D02000FFF756
:101D3000BEFF0023237723681A69D20612D5DA681A
:101D4000D2060FD5112252421A6108232377236845
:101D5000DA69C0239B001A4235D02000FFF7A7FFA5
:101D60000023237723681A69D20702D5DA68D207DD
:101D700030D423681A69120602D5DA68120630D404
:101D800023681A69520602D5DA68520630D42368ED
:101D90001A69920602D5DA68920630D410BDFFF7B0
:101DA00085FF200000F068FE97E72000FFF77EFF28
:101DB000200000F061FEA7E72000FFF777FF20007A
:101DC00000F05AFEB5E72000FFF770FF200000F09A
:101DD00053FEC5E7022252421A612000FFF765FF59
:101DE000C7E7812252421A61200000F098FAC7E743
:101DF000412252421A612000FFF75AFFC7E7212211
:101E000052421A61200000F089FAC7E703681A4AB3
:101E1000904202D0194A904203D1702293434A68FB
:101E20001343154A90420BD0144A904208D0144AEA
:101E3000904205D0134A904202D0134A904203D1F7
:101E4000124A1340CA681343802293434A691343DA
:101E500003608B68C3620B688362074B984205D0AE
:101E6000084B984202D0084B984201D10B6903639A
:101E7000012343617047C046002C0140000400402C
:101E8000002000400044014000480140FFFCFFFFEB
:101E900070B5041E26D03D23C35C002B1CD03D250D
:101EA00002236355210001C9FFF7B0FF0123462239
:101EB000A354083AA3540132A3540132A35401326B
:101EC000A3540132A3540132A3540132A35401326A
:101ED000A3546355002070BD3C330022C254FEF76A
:101EE00095FBDCE70120F6E770B5041E26D03D2304
:101EF000C35C002B1CD03D2502236355210001C982
:101F0000FFF784FF01234622A354083AA354013269
:101F1000A3540132A3540132A3540132A354013219
:101F2000A3540132A3540132A3546355002070BD61
:101F30003C330022C254FFF7B7FEDCE70120F6E78E
:101F400030B5036A102293430362036A45688469CB
:101F5000164A14400A6812021443202293438A68E6
:101F600012011343124A904216D0114A904205D0F2
:101F7000104A904202D0104A904207D10F4A2A409C
:101F80004D69AD0015438A6992001543456084612F
:101F90004A688263036230BD802293431A00CB6893
:101FA0001B01134340229343DFE7C046FF8CFFFF32
:101FB000002C01400044014000480140FFF3FFFFB6
:101FC00070B504000D003C23C35C012B63D03C239F
:101FD0000121C154082A4AD019D8002A2FD0042A36
:101FE00040D129000068FFF7ABFF22689169802388
:101FF0001B010B4393612268936928490B4093614D
:1020000021688B692A69120213438B612AE00C2A2A
:1020100028D129000068FFF7E5FD2268D1698023F7
:102020001B010B43D3612268D3691C490B40D36168
:102030002168CB692A6912021343CB6112E029009F
:102040000068FFF74FFD2268936908210B439361F5
:102050002268936904398B439361226893692969E3
:102060000B4393613C230022E254002070BD290001
:102070000068FFF773FD2268D36908210B43D36121
:102080002268D36904398B43D3612268D3692969F3
:102090000B43D361E6E70220E8E7C046FFFBFFFF02
:1020A00030B58468034D2C401B0213430B4323437C
:1020B000836030BDFF00FFFF10B504003C23C35C0C
:1020C000012B66D03C230122C25401330132C25499
:1020D000026893683048034093600B68602B44D0DB
:1020E00024D8402B4BD00BD9502B0ED1CA6849684D
:1020F0002068FFF7ABFD50212068FFF7CDFD04E01D
:10210000202B0ED009D9302B0BD03D230122E254D5
:10211000013B0022E254002010BD002B01D0102B07
:10212000F3D119002068FFF7B7FDEEE7702B10D050
:10213000802292019342E8D1CB684A68896820687E
:10214000FFF7AEFF226891688023DB010B439360A9
:10215000DBE7CB684A6889682068FFF7A1FF22683F
:10216000936877210B439360CFE7CA68496820687A
:10217000FFF77EFD60212068FFF78EFDC5E7CA6886
:1021800049682068FFF762FD40212068FFF784FD61
:10219000BBE70220C0E7C0468800FFFF10B51F2341
:1021A000194001248C40036AA3430362036A8A40F6
:1021B0001343036210BD000070B505000C00082930
:1021C00043D00CD8002915D004291BD10268D3684C
:1021D00031490B40D360806AFEF71EFC12E00C29E7
:1021E00010D10268D3682D490B40D360006BFEF715
:1021F00013FC07E00268D36829490B40D360406AAA
:10220000FEF70AFC002221002868FFF7C7FF2B68B1
:10221000244A934222D0244A93421FD0234A934215
:102220001CD02B68196A224A114207D1196A214A27
:10223000114203D11A6801218A431A60002C1AD175
:102240003E230122EA54002070BD0268D3681A4977
:102250000B40D360C06AFEF7DFFBD3E7196A144A6C
:102260001142DED1196A134A1142DAD15A6C13496C
:102270000A405A64D5E7042C05D0082C07D0412326
:102280000122EA54DFE73F230122EA54DBE740233F
:102290000122EA54D7E7C046FFFBFFFFFFEFFFFF35
:1022A000FFFDFFFF002C01400044014000480140B9
:1022B0001111000044040000FFF7FFFFFF7FFFFF44
:1022C00030B53C23C35C012B21D03C230122C254F6
:1022D00001330132C25403685A689C687025AA43CE
:1022E0000D682A435A6003680A4A934202D00A4A98
:1022F000934204D1802294434A6814439C603D2356
:102300000122C254013B0022C254002030BD0220F1
:10231000FCE7C046002C01400004004070477047B5
:1023200010B5040083680269134342691343C2690C
:10233000134301680A685148024013430B60226846
:1023400053684F490B40E1680B435360226AA3690D
:102350001A4321688B684B48034013438B60236802
:10236000494A934223D0494A934231D01023E0692D
:1023700080221202904235D0042B00D176E064D83E
:10238000002B00D16BE0022B5DD1414863685B08F4
:1023900018186168FDF7B8FE0004000C0200103A3E
:1023A0003C4B9A4267D82368D860002053E03A4BF0
:1023B0001A6B03231340022B0CD005D8002B0BD033
:1023C000012B0BD10333D2E7032B09D1013BCEE71D
:1023D0000023CCE70823CAE70023C8E71023C6E799
:1023E0001023C4E7042B2BD020D8002B22D0022BA3
:1023F0001AD12748400063685B08C0186168FDF780
:1024000083FE83B20004000C01001039214A91427E
:102410002FD80F2293431A00400807231840104377
:102420002368D860002016E0012014E0082BE1D0DA
:10243000012010E0FFF72CF80028DBD100200AE093
:10244000FEF746FFF8E7012005E0082B02D18020C7
:1024500000029BE7012000236366A36610BDFFF71F
:1024600017F8002800D091E70020F4E7FEF730FFCE
:10247000F7E70120EFE70120EDE7C046F369FFEF42
:10248000FFCFFFFFFFF4FFFF003801400044004092
:1024900000127A00EFFF000000100240436ADB07E1
:1024A00006D5026853682C490B40816A0B43536080
:1024B000436A9B0706D50268536828490B40C16AE6
:1024C0000B435360436A5B0706D50268536824498F
:1024D0000B40016B0B435360436A1B0706D5026830
:1024E000536820490B40416B0B435360436ADB0642
:1024F00006D5026893681C490B40816B0B439360BF
:10250000436A9B0606D50268936818490B40C16B65
:102510000B439360436A5B060BD50268536814490A
:102520000B40016C0B43536080235B03026C9A42A7
:102530000AD0436A1B0606D5026853680D490B4052
:10254000816C0B4353607047026853680A490B4023
:10255000416C0B435360ECE7FFFFFDFFFFFFFEFF05
:10256000FFFFFBFFFF7FFFFFFFEFFFFFFFDFFFFF2F
:10257000FFFFEFFFFFFFF7FFFFFF9FFFF8B5CE461E
:10258000474680B506000D0017009946089B9846FF
:102590003368DC692C40641B63425C41BC423DD122
:1025A00043460133F4D0FEF78BF94B46C01A404541
:1025B00021D84346002B1ED033681A685207E7D54E
:1025C000DA691205E4D5802212011A6232681368B2
:1025D00015490B40136032689368A331FF318B4378
:1025E00093602023B367F3678022B35054330022F3
:1025F000F254032013E0326813680B490B40136058
:1026000032689368A331FF318B4393602023B36713
:10261000F36754330022F254032000E00020C0BCD2
:10262000B946B046F8BDC0465FFEFFFF30B583B087
:10263000040080230022C250FEF742F90500226800
:10264000126813070DD423681B685B0716D4202378
:10265000A367E367002323667422A354002003B01A
:1026600030BD80210C4B0093030000228903200021
:10267000FFF784FF0028E6D00320F0E78021064B17
:1026800000932B000022C9032000FFF777FF0028EA
:10269000DDD00320E3E7C046FFFFFF0110B5041EB5
:1026A0002ED0836F002B21D02423A36722681368C8
:1026B00001218B4313602000FFF732FE012814D064
:1026C000636A002B18D1226853680E490B4053608F
:1026D0002268936808218B43936022681368073946
:1026E0000B4313602000FFF7A1FF10BD74330022DD
:1026F000C254FEF76FF8D7E72000FFF7CFFEE2E7FE
:102700000120F2E7FFF7FFFF00B583B06B46D871F9
:10271000002914D0902001220221C005FEF7BEFA44
:10272000FF230122694607310848FFF701F990208D
:1027300001220221C005FEF7B1FA03B000BD9020CE
:1027400000220221C005FEF7A9FAE9E7640600208D
:1027500010B504005039C8B20021FFF7D5FF200999
:1027600010231843C0B20021FFF7CEFF0E202040F7
:102770000123184340B2C0B20021FFF7C5FF10BDCE
:1027800070B500250AE001210020FFF7BDFF0134EC
:10279000E4B263B2002BF6DA0135EDB2072D0FD8A3
:1027A00028005038C0B20021FFF7AEFF0021002002
:1027B000FFF7AAFF00211020FFF7A6FF0024E8E79B
:1027C00070BD0000F8B507000E00203AD5B243B244
:1027D000002B05DB31003800FFF7BAFF00240CE0C6
:1027E0000236F6B20027F5E72B01E3180E4AD05C5B
:1027F0000121FFF789FF0134E4B2072CF4D9013637
:10280000F1B23800FFF7A4FF002409E02B01E31820
:102810000833054AD05C0121FFF776FF0134E4B2AA
:10282000072CF3D9F8BDC0467C2D0008020001201A
:1028300001E0504319004B1EDBB20029F9D170476B
:10284000F0B5D6464F464646C0B581468846170085
:102850001D0008AB1B789A460026002417E053465B
:1028600058086043C0B24844C0B220224146FFF736
:10287000A9FF0AE0534658086043C0B23031CAB2DB
:102880004844C0B24146FFF79DFF0134E4B2AC4278
:1028900017D2291BC9B20139C9B20A20FFF7C6FFF6
:1028A00001003800FDF730FC0A21FDF7B3FCC9B286
:1028B000002EDFD16B1E9C42DCDA0029CFD001262E
:1028C000D8E7E0BCBA46B146A846F0BDF8B504006A
:1028D0000E001700002501E00135EDB27A5D002AF7
:1028E0000BD031002000FFF76DFF0834E4B2782CE4
:1028F000F2D90236F6B20024EEE7F8BDF8B50700CB
:102900000E001500FFF724FF002408E0AA010F4B7A
:102910009B18185D0121FFF7F7FE0134E4B20F2C7C
:10292000F4D90136F1B23800FFF712FF00240AE0B3
:102930006B0001335B01054AD318185D0121FFF7D5
:10294000E3FE0134E4B20F2CF2D9F8BD0C000020F4
:1029500010B59024E405012240212000FEF79EF9E5
:102960006420FDF7B3FF002240212000FEF796F916
:102970006420FDF7ABFF012240212000FEF78EF915
:102980000021AE20FFF7C0FE00210020FFF7BCFEB3
:1029900000211020FFF7B8FE00214020FFF7B4FE11
:1029A00000218120FFF7B0FE0021CF20FFF7ACFE11
:1029B0000021A120FFF7A8FE0021C820FFF7A4FEF8
:1029C0000021A620FFF7A0FE0021A820FFF79CFE13
:1029D00000213F20FFF798FE0021D320FFF794FE4F
:1029E00000210020FFF790FE0021D520FFF78CFE8C
:1029F00000218020FFF788FE0021D920FFF784FE08
:102A00000021F120FFF780FE0021DA20FFF77CFE95
:102A100000211220FFF778FE0021DB20FFF774FE73
:102A200000214020FFF770FE00212020FFF76CFE00
:102A300000210220FFF768FE00218D20FFF764FED1
:102A400000211420FFF760FE0021A420FFF75CFEA8
:102A50000021A620FFF758FE0021AF20FFF754FE0B
:102A60000021AF20FFF750FEFFF78AFE0021002073
:102A7000FFF76EFE10BD000010B5044B834200D07E
:102A800010BD0C211800FFF797FBF9E70C07002099
:102A90001348854613480168090E134A914205D12F
:102AA000124813490160134813490160134814493F
:102AB000144A002302E0D458C4500433C4188C4292
:102AC000F9D3114A114C002301E013600432A242F1
:102AD000FBD3FDF799FD00F01DF8FDF79FFCFEE725
:102AE00000180020040000001F0000001810024021
:102AF0000100000000000140000000000000002074
:102B0000FC0500207C330008FC050020E0070020C5
:102B1000FEE7000070B50C4D0C4E761BB61005D0CC
:102B2000002408CD01349847A642FAD100F0EAF813
:102B3000074D084E761BB61005D0002408CD013491
:102B40009847A642FAD170BD703300087033000870
:102B50007033000878330008F0B50500830749D0CA
:102B6000541E002A45D003000326CAB202E00135F4
:102B7000013C3ED301332A703342F8D1032C30D9C3
:102B8000FF220A40150215432A0415430F2C34D99D
:102B90002700103F3F093E01B4461E001A001036C0
:102BA0006644156055609560D5601032B242F8D128
:102BB00001373F01DB190F270C22274022403C0040
:102BC000002A0ED03E1FB608B400A4461A001C1DF1
:102BD000644420C2A242FCD103240136B6009B19F2
:102BE0003C40002C05D0C9B21C19197001339C421D
:102BF000FBD1F0BD03001400C0E72700E2E7C046A8
:102C0000034B10B5002B02D0024800F005F810BDB0
:102C100000000000292C000810B50100002300224C
:102C2000002000F019F810BD70B5074D074C641B6B
:102C3000A41005D0013CA300EB589847002CF9D113
:102C400000F066F870BDC046783300087C33000899
:102C50007047C0467047C046F0B5D6464F46464618
:102C6000C0B5264F82B0060038689246984689461D
:102C7000FFF7EEFF224B1B680193A423019A5B0030
:102C8000D558002D2ED06C681F2C30DC002E0FD1B3
:102C9000631C6B604B460234A40038686351FFF735
:102CA000D9FF002002B0E0BCBA46B146A846F0BD4C
:102CB000882251462800A300EB189950873AA24079
:102CC0008930FF300168114301608421404649008A
:102CD0005850022EDCD12B008D33FF3319680A4384
:102CE0001A60D5E715004D35FF35D550CBE738686C
:102CF000FFF7B0FF01204042D4E7C046F8050020AE
:102D00006C330008F8B5C046F8BC08BC9E46704756
:0C2D1000F8B5C046F8BC08BC9E467047F1
:102D1C00312E3327204F4C4544205445535400004A
:102D2C0041534349493A0000434F44453A0000009F
:102D3C00000000000000000001020304060708095F
:102D4C000000000001020304020304050607080941
:102D5C000A0B0C0D0E0F10100000000001020304F2
:102D6C0005060708090A0B0C0D0E0F1000000000D9
:102D7C000000000000000000000000000000000047
:102D8C00000000F8000000000000003330000000DC
:102D9C0000100C06100C06000000000000000000E3
:102DAC0040C07840C0784000043F04043F04040055
:102DBC00007088FC08300000001820FF211E000065
:102DCC00F008F000E018000000211C031E211E007A
:102DDC0000F00888700000001E2123241927211000
:102DEC0010160E00000000000000000000000000A3
:102DFC00000000E01804020000000007182040004A
:102E0C0000020418E0000000004020180700000039
:102E1C00404080F0804040000202010F010202009D
:102E2C00000000F0000000000101011F0101010081
:102E3C00000000000000000080B0700000000000E6
:102E4C00000000000000000000010101010101016F
:102E5C000000000000000000003030000000000006
:102E6C0000000000806018040060180601000000DB
:102E7C0000E010080810E000000F102020100F00D8
:102E8C00001010F8000000000020203F202000005F
:102E9C0000700808088870000030282422213000B7
:102EAC0000300888884830000018202020110E00BF
:102EBC000000C02010F8000000070424243F240068
:102ECC0000F80888880808000019212020110E003D
:102EDC0000E0108888180000000F112020110E004F
:102EEC0000380808C83808000000003F0000000047
:102EFC000070880808887000001C222121221C0008
:102F0C0000E010080810E0000000312222110F0030
:102F1C00000000C0C00000000000003030000000C5
:102F2C000000008000000000000080600000000035
:102F3C00000080402010080000010204081020004E
:102F4C004040404040404000040404040404040099
:102F5C00000810204080000000201008040201002E
:102F6C00007048080808F00000000030360100002E
:102F7C00C030C828E810E0000718272423140B00E1
:102F8C000000C038E0000000203C2302022738205B
:102F9C0008F8888888700000203F202020110E003F
:102FAC00C030080808083800071820202010080036
:102FBC0008F808080810E000203F202020100F001F
:102FCC0008F88888E8081000203F202023201800EB
:102FDC0008F88888E8081000203F20000300000053
:102FEC00C03008080838000007182020221E0200F4
:102FFC0008F808000008F808203F210101213F20B3
:10300C00000808F8080800000020203F20200000DD
:10301C0000000808F8080800C08080807F000000CD
:10302C0008F888C028180800203F20012638200006
:10303C0008F8080000000000203F2020202030006D
:10304C0008F8F800F8F80800203F003F003F200087
:10305C0008F830C00008F808203F200007183F008F
:10306C00E01008080810E0000F10202020100F00BE
:10307C0008F808080808F000203F210101010000B1
:10308C00E01008080810E0000F18242438504F00F6
:10309C0008F8888888887000203F2000030C3020B6
:1030AC0000708808080838000038202121221C00F4
:1030BC00180808F8080818000000203F200000003D
:1030CC0008F808000008F808001F202020201F0026
:1030DC000878880000C83808000007380E01000086
:1030EC00F80800F80008F800033C0700073C030050
:1030FC00081868808068180820302C03032C3020B6
:10310C000838C800C83808000000203F2000000024
:10311C0010080808C838080020382621202018007C
:10312C00000000FE020202000000007F4040400050
:10313C00000C30C000000000000000010638C00088
:10314C0000020202FE000000004040407F00000030
:10315C000000040202020400000000000000000055
:10316C000000000000000000808080808080808053
:10317C00000202040000000000000000000000003B
:10318C0000008080808000000019242222223F2031
:10319C0008F8008080000000003F112020110E0074
:1031AC000000008080800000000E11202020110003
:1031BC00000000808088F800000E112020103F20B5
:1031CC000000808080800000001F22222222130039
:1031DC00008080F0888888180020203F2020000084
:1031EC000000808080808000006B94949493600039
:1031FC0008F8008080800000203F210000203F2044
:10320C0000809898000000000020203F2020000043
:10321C00000000809898000000C08080807F000033
:10322C0008F8000080808000203F24022D30200010
:10323C00000808F8000000000020203F20200000BB
:10324C008080808080808000203F20003F20003FD5
:10325C008080008080800000203F210000203F20E3
:10326C000000808080800000001F202020201F0094
:10327C00808000808000000080FFA12020110E00C3
:10328C000000008080808000000E112020A0FF80B4
:10329C00808080008080800020203F212000010061
:1032AC0000008080808080000033242424241900B6
:1032BC00008080E0808000000000001F20200000C3
:1032CC008080000000808000001F202020103F2004
:1032DC00808080000080808000010E300806010094
:1032EC0080800080008080800F300C030C300F0039
:1032FC0000808000808080000020312E0E31200064
:10330C00808080000080808080818E701806010093
:10331C0000808080808080000021302C22213000B1
:10332C0000000000807C020200000000003F4040D2
:10333C0000000000FF00000000000000FF00000083
:10334C000002027C800000000040403F00000000B2
:10335C00000601010202040400000000000000004D
:04336C00D00100206C
:08337000012C0008E90000082F
:04337800C100000888
:10337C0000127A0001000000040000000000F010B0
:10338C00101010FF10101010F000000000000000D2
:10339C0000000000000000000000000000000F040E
:1033AC00040404FF040404040F00000000000000E7
:1033BC000000000000000000000000004040405FE2
:1033CC00555555755555555F40404000000000005F
:1033DC000000000000000000000000000040200F72
:1033EC00094989790909090F2040000000000000F3
:1033FC0000000000000000000000000000FE02427F
:10340C004ACA4A4ACA4A4A4202FE00000000000068
:10341C0000000000000000000000000000FF405011
:10342C004C4340404F50505C40FF000000000000F7
:10343C000000000000000000000000000000F88800
:10344C00888888FF88888888F800000000000000C1
:10345C0000000000000000000000000000001F0839
:10346C000808087F888888889F80F000000000008A
:10347C00000000000000000000000000808282823A
:10348C00828282E2A2928A86828080000000000002
:10349C000000000000000000000000000000000020
:1034AC000040807F000000000000000000000000D1
:1034BC000000000000000000000000002424A4FE16
:1034CC00A3220022CC0000FF00000000000000003E
:1034DC00000000000000000000000000080601FFD2
:1034EC0000010404040404FF0202020000000000B6
:1034FC00000000000000000000000000101010FF91
:10350C00109008888888FF888888080000000000D0
:10351C000000000000000000000000000444827F56
:10352C0001808040432C1028468180000000000060
:10353C00000000000000000000000000000000007F
:10354C0000000000BC040020240500208C05002095
:10355C00000000000000000000000000000000005F
:10356C00000000000000000000000000000000004F
:10357C00000000000000000000000000000000003F
:10358C00000000000000000000000000000000002F
:10359C00000000000000000000000000000000001F
:1035AC00000000000000000000000000000000000F
:1035BC0000000000000000000000000000000000FF
:1035CC0000000000000000000000000000000000EF
:1035DC0000000000000000000000000000000000DF
:1035EC0000000000000000000100000000000000CE
:1035FC000E33CDAB34126DE6ECDE05000B00000093
:10360C0000000000000000000000000000000000AE
:10361C00000000000000000000000000000000009E
:10362C00000000000000000000000000000000008E
:10363C00000000000000000000000000000000007E
:0C396C000000000000000000DC0700204C
:0400000508002A9134
:00000001FF
