:020000040800F2
:10000000D8070020D5000008AD1A0008A118000884
:1000100000000000000000000000000000000000E0
:10002000000000000000000000000000B11A0008FD
:100030000000000000000000AF1A0008891B000843
:100040000501000800000000050100080501000886
:100050000501000805010008050100080501000868
:100060000000000005010008B501000805010008B6
:100070000501000805010008050100080000000056
:100080001D1C000800000000000000000501000821
:100090000000000005010008050100080501000836
:1000A0000000000005010008000000000501000834
:1000B0000501000800000000000000000501000824
:1000C0000348854600F064F80048004771220008A4
:1000D000D80700200C4880F308880C480168090EF6
:1000E0000B4A914205D10B480B4901600B480C4962
:1000F00001600C4880470C480047FEE7FEE7FEE73A
:10010000FEE7FEE7FEE70000D8070020040000003D
:100110001F00000018100240010000000000014014
:10012000000000001B1C0008C1000008D2B201E062
:100130000270401C491EFBD270470022F6E710B542
:1001400013460A4604461946FFF7F0FF204610BD45
:1001500070B50446002903D000202022012310E0BE
:10016000002801D00020C043C046C0460DE025460F
:10017000D5408D4205D30D469540641B1D469540E4
:1001800040191546521E002DF1DC214670BD0000BD
:10019000064C0125064E05E0E36807CC2B430C3CDA
:1001A00098471034B442F7D3FFF78EFF342300088A
:1001B0005423000880B5024800F02AF880BDC046EC
:1001C00020000020EFF3108072B6FEE7B0B52121C9
:1001D000415C022917D101462031026813680E24C0
:1001E000A343136013680125AB431360C26B036C18
:1001F0002C469C40546000240C704D70416B0029CB
:1002000004D0884702E00421816301242046B0BD68
:10021000F0B581B0C16B046C00910D68026816687E
:1002200073070FD504210F46A7403B462B4009D04A
:1002300013689B0602D413688B43136000994F60C8
:10024000C16A2BE003462033B10713D50227A7402C
:10025000394629400ED01168890605D411680A2450
:10026000A1431160012159700021197000994F605C
:10027000816A13E0310714D50821A140294010D02C
:1002800011680E25A943116001210A46A240009C75
:100290006260816300221A705970016B002900D0DE
:1002A000884701B0F0BD0000F0B585B000282DD022
:1002B00004460646203602207070A2CC236860688F
:1002C0000190A0680290E06803902069049008689B
:1002D000104A02402A433A431A43019802430298C3
:1002E000024303980243049802430A600025E56232
:1002F00009482063357009480C3C08181421FFF7A1
:1003000027FF800020640120707000E0012528464E
:1003100005B0F0BD0FC0FFFF00000240F8FFFDBFB9
:10032000F0B582B004462020255C0220012D35D096
:1003300026462036012535707778012F21D10220FD
:1003400070700020A06326683768AF433760E76BA2
:100350000097276C0195BD40009F7D6073606368C6
:10036000102B174600D00F46B760102B00D0114657
:10037000F1603168E26A002A019B05D00E22114328
:1003800008E00021317009E00A2211433160316830
:1003900004229143316031681943316002B0F0BDED
:1003A000B0B5044600F0EAF80546601C02D0F448F7
:1003B0000078041900F0E2F8401BA042FAD3B0BD67
:1003C000F0B58BB0019009910A68002A00D1BEE017
:1003D00060480199814201D0052000E0032000908F
:1003E00001240026029435460896611E0298079162
:1003F00088400240059200D19CE0069609994B681E
:10040000122B039566D801219940544A114261D0BC
:100410000321A940019EB7688F43099AD268AA4078
:100420003A43B2601A09079FBA4077688743174377
:100430007760C84308994D00F1680140099A9268B5
:100440000495AA400A43F26010211943122911D1E0
:100450001C21069A11400F228A40079BDB089B0053
:10046000F3181F6A9743099A12698A403A431A623D
:1004700009994B6832680240032118460840049DE0
:10048000A84010433060D800069E039D52D5C84B4B
:100490001A68012002431A601A6802400A920C236B
:1004A00033400F229A40079E8E430A992C49775871
:1004B0009743079776180921C906019A8A420ED0F8
:1004C00028498A420CD0284882420098079908D1CE
:1004D000022006E00320A840C043019EACE70020B4
:1004E00007999840084330601B48016809984068A4
:1004F000C20302D5059B194301E0059B9943069E63
:10050000154A11605168820301D5194300E09943EF
:10051000114A51609168C20201D5194300E0994324
:100520000D4A9160D168800201D5194300E09943DA
:100530000948C160099802681046E040361D641CF5
:10054000AD1C0899491C0891002800D04DE70BB05C
:10055000F0BDC046000C0048000401400600060043
:10056000080001400004004800080048002A01D0AB
:10057000182200E028228150704700006948006876
:100580007047C046B0B502464120135C0220202BC4
:1005900019D1134640331C78012C14D024205870F4
:1005A000106802680124A243026022030568954393
:1005B000056002680A43026001682143016000206F
:1005C000187020215970B0BDB0B502464120135CAF
:1005D0000220202B19D1134640331C78012C14D053
:1005E00024205870106802680124A24302600F2280
:1005F00012020568954309022943016001682143FD
:1006000001600020187020215970B0BDF0B581B094
:10061000002822D00446054640356878002804D1D9
:1006200000202870204600F043F8242068702068DD
:10063000026801218A4302600F2212066368934315
:1006400003618368184A13408360A368E668012E3B
:1006500005D1CE033343836009E0012022E0212746
:10066000BF023B438360022E01D1CB02436043684B
:100670000E4E1E434660C3681340C360226963691F
:100680001343A26912021A43C260E269236A134348
:10069000036002680A4302600020606420216970E0
:1006A0002063A87001B0F0BDFF7FFFFF0080000253
:1006B000B0B586B0044601A81421FFF73EFD2068BE
:1006C000124988421FD1124C206801250395690404
:1006D0000843206020680840009004200590122004
:1006E0000290032004904002019000980920C00667
:1006F00001A9FFF765FE6805A1680143A160A16833
:1007000001400091009806B0B0BDC04600540040C2
:10071000141002401A48007802490A68101808604C
:100720007047C046D003002010B5B94801681022B8
:100730000A4302600024204600F004F800F024F888
:10074000204610BDB0B504467D20C0000C49097894
:10075000FFF7FEFC0146B6480068FFF7F9FC00F021
:1007600049FC0125032C09D8002807D10025E843BE
:1007700021462A4600F02AF8024804602846B0BD07
:10078000040000200800002082B00948016801220E
:1007900011430160016811400191019911074268FC
:1007A0000A434260406808400090009802B07047D9
:1007B00018100240002805D41F2108400121814063
:1007C000014801607047C04600E100E0002805D400
:1007D0000322034693430C4A9A1806E00F22024074
:1007E000083A03239A43074BD2188007C00E8901A9
:1007F000C9B28140FF2383401068984308431060CA
:100800007047C0461CED00E000E400E0F0B585B0A4
:1008100004468078C0073C4B38D001200290010785
:1008200018680840039006D11868084318601868D3
:100830000840049004980191344E3068C00540D5BA
:1008400003252802304B5968014012D062680240EB
:1008500091420ED00298000459685A6802435A60C7
:100860005A6882435A600846294A10405860C807AF
:1008700039D1586826490840616801435960039896
:10088000002803D118680199884318602068C107BF
:1008900005D0596903229143A2680A435A6181062F
:1008A00005D5596910229143E2680A435A6100252F
:1008B000800325D558698021884321690143596106
:1008C0001EE002980702306838433060FFF756FE9A
:1008D000054630683842B3D1FFF750FE401B64280C
:1008E000F7D903250CE0FFF749FE0646494F064BB2
:1008F00058688007BDD4FFF741FE801BB842F6D987
:10090000284605B0F0BDC0461C10024000700040F3
:10091000FFFCFFFFF0B581B000284CD004463C4AF4
:100920001368012003408B4208D213680126B343A9
:100930000B431360126832408A4266D100912168ED
:100940008A070ED54A0705D5072212024C4D2B689F
:1009500013432B604A4D2A68F0239A43A36813433C
:100960002B60C90729D12A49086801263040009A1E
:10097000904205D90868B04308600868C00744D1B0
:100980002078400707D5072000023D4A11688143BF
:10099000E0680843106000F04FF83949096809061B
:1009A000090F1D4A515CC8402149086000263046A5
:1009B000FFF7C8FE29E0012627E06168304A121FD0
:1009C000022904D0012905D11268920304E01268BB
:1009D000920101E012689207064616D5284A10686F
:1009E0000326B04308431060FFF7C8FD0746094DD2
:1009F000234800680C210140606880008142B2D029
:100A0000FFF7BCFDC01BA842F2D9304601B0F0BDD3
:100A100000200240881300001A23000804480068E0
:100A2000174909684905490F024A515CC840704797
:100A3000000000202A23000810B511490A680C2381
:100A400013401048042B16D0082B16D1896A0F23A7
:100A50000B400DA1C95C93021B0F0FA4E45C0323A0
:100A6000DB03134001221204934200D00E48FFF72B
:100A70006FFB444302E0044600E00B4C204610BDEF
:100A8000041002400024F4000102030405060708D4
:100A9000090A0B0C0D0E0F100203040506070809C6
:100AA0000A0B0C0D0E0F101000127A00F0B587B073
:100AB00004460120002C00D1A2E104902078C00758
:100AC000F24E059420D12078800774D57068000715
:100AD000800F0CD070680C21014008292CD1032014
:100AE000C003716801400120C003814224D13068F5
:100AF0008007059A03D5D068012800D07FE13068CF
:100B0000F8218843116953E071680C2001400429E1
:100B10000BD071680140082922D10320C0037168FD
:100B200001400120000481421AD130688003CAD5F7
:100B300060680028C7D162E13068059CE16800293F
:100B400022D0012108433060FFF718FD05463068C8
:100B5000800729D4FFF712FD401B0228F7D922E1B4
:100B6000616801204704002900D1F1E0052900D186
:100B700005E1012900D106E1010432688A433260AF
:100B800081043068884301E1012188433060FFF728
:100B9000F5FC0546306880070DD5FFF7EFFC411BDB
:100BA00003200229F6D92BE13068F8218843216916
:100BB000C90001433160059C2078000727D42078C4
:100BC000400700D488E0012003900107F069084045
:100BD000029006D1F0690843F061F0690840069080
:100BE00006980191AA4F3868C00532D505988068EB
:100BF000A84F00283FD0052852D0012854D0306A91
:100C0000039988433062306A042188434FE0706A58
:100C1000E16900290ED0012108437062FFF7AEFCA4
:100C20000546706A8007CAD4FFF7A8FC401B02285B
:100C3000F7D9B8E0012188437062FFF79FFC0546B1
:100C4000706A8007BBD5FFF799FC401B0228F7D9D3
:100C5000A9E003980402386820433860FFF78EFC4F
:100C6000054638682042C1D1FFF788FC411B0320AC
:100C70006429F6D9C4E0306A039988433062306A47
:100C8000042188433062FFF779FC0546306A80070B
:100C90001AD5FFF773FC411B0320B942F6D9AFE028
:100CA000306A042101433162306A0399084330629B
:100CB000FFF764FC0546306A800705D4FFF75EFC49
:100CC000401BB842F7D96EE002980028059C03D17A
:100CD000F06901998843F0612078C0066DD5059AC6
:100CE0005069411D16D001281DD1706B04210143AC
:100CF0007163706B012101437163FFF73FFC05468F
:100D0000706B800751D4FFF739FC411B0320022987
:100D1000F6D975E0706B042188437063706BF8211D
:100D20008843916946E0706B042101437163706BE5
:100D3000012188437063FFF721FC0546706B800733
:100D40003BD5FFF71BFC411B03200229F6D957E0D6
:100D5000010432688A433260800431688143316023
:100D6000FFF70CFC0546059C3068384200D1AAE626
:100D7000FFF704FC411B03206429F5D940E08104FE
:100D800032680A4332600104306808433060FFF77C
:100D9000F5FB05463068384200D094E6FFF7EEFBDD
:100DA000401B6428F6D903202AE0706BF8218843A1
:100DB00005998969C900014371630598046A002C8B
:100DC0001BD070680C21014008291BD1012C16D0C2
:100DD0000320C20370680240F16A059C636A9A426C
:100DE0000DD10F221140E36A9942049B4BD191042B
:100DF0000840A16A8842184602D1002000E0049809
:100E000007B0F0BD012002063168049291433160C1
:100E10004706FFF7B3FB0546022C0AD1049C306855
:100E2000384210D0FFF7AAFB411B03200229F6D954
:100E3000E6E730683842E0D0FFF7A0FB411B032013
:100E40000229F6D9DCE7F06A0F218843059AD16AB6
:100E50000143F1627B20C00371688143906A0843BB
:100E6000516A01437160306820433060FFF786FBB0
:100E7000044630683842C0D1FFF780FB011B0320D5
:100E80000229F6D9BCE71846BAE7C046001002406E
:100E90000070004088130000F0B585B000280CD029
:100EA000044605465C3541208600606A002806D06D
:100EB000002020612046143006E0012064E06068D4
:100EC000B04203D020461C30002101600027A762F9
:100ED0006878002804D100202870204600F058F8D7
:100EE00002200495019068702068016840229143B7
:100EF00003900160E168254A012591422A4600D30A
:100F00003A461203ED020D430F2738020290854244
:100F100001D00025A5626568A768354021239B02A2
:100F20003B405B192569019805401D436069012319
:100F300018402843FC36A7693E400643E06938253F
:100F400005403543206A802606402E435803A56A93
:100F500005403543039E3560380C04250540029852
:100F600001400A432A43606A102101401143606B2B
:100F7000082202400A437260D802F1698143F1619C
:100F80000020206604994B7005B0F0BD01070000F9
:100F900010B586B0044601A81421FFF7CEF82068EA
:100FA000124988421FD101200103114A53680B43A3
:100FB000536053680B40009300994004116801434B
:100FC00011601168014000910020059003210491F7
:100FD000039002200290B02001900920C0060099E1
:100FE00001A9FFF7EDF906B010BDC0460030014081
:100FF00014100240401E010E01D001207047074925
:10100000074A5060074803680B40032189075918B5
:10101000016000209060072111607047FFFFFF0012
:1010200010E000E020ED00E070477047B0B53C22D2
:10103000825C012A01D10220B0BD02463C3202236B
:10104000537001231370006844687025AC430D6829
:10105000254384684560074DA84202D0EA4DA84266
:1010600004D18025AC434968214381600020107081
:101070005370B0BD002C0140B0B500281DD004460F
:1010800005463C356878002804D1002028702046A9
:1010900000F016F80220687001CC214600F0C6FD71
:1010A0000120A872A870E87028716871A871E871B1
:1010B0002872687268700020B0BD0120B0BD0000C9
:1010C000F0B583B004460068CF49884232D11A484F
:1010D000026802231A430260184D0022802001900A
:1010E00010260327380300900120C1024002144F4C
:1010F0002F606E60AA60019EEE602E46103607C615
:101100000098E8610C480068184002900298284650
:10111000FFF7CAF8002801D0FFF754F825622563CD
:101120006C621024002120460A46FFF74FFB204640
:10113000FFF740FB03B0F0BD1C1002402000002070
:101140003000024070B53C22825C012A01D10220AD
:1011500070BD02463C3202235370012313700068B5
:101160008468444D2C4084600C683F2C16DD5F2C55
:101170001BDD602C3CD05E03B44252D0702C75D184
:10118000773584682C404D688E68C9682E43090203
:10119000314321438160846877214FE01F2C1DDC9F
:1011A000002C1FD0102C1DD060E0402C48D0502CBB
:1011B0005CD1046A056A9D4305628569F026B543E2
:1011C000CE6836012E4386610A25AC434968214327
:1011D0000162846857212143202445E0202C01D05E
:1011E000302C43D181687025A9430C43072125E0A9
:1011F0001024E443056A254005620F252D03866906
:10120000AE43CD682D033543066A8561A025AE4304
:1012100049680901314301628568672129432140FA
:1012200023E0773584682C404D688E68C9682E436A
:1012300009023143214381609C038168214314E00A
:10124000046A056A9D4305628569F026B543CE6848
:1012500036012E4386610A25AC4349682143016269
:101260008468472121433024A1438160002010700D
:10127000537070BD8800FFFF70477047B0B50446DB
:101280008020C54320680169890717D5C16889078F
:1012900014D529467E3101610121217780698007BB
:1012A00003D02046FFF7E9FF05E0204600F0B2F842
:1012B000204600F033F900202077206801694907B3
:1012C00018D5C168490715D529467C31016102212D
:1012D000217780698005800F03D02046FFF7CDFF7E
:1012E00005E0204600F096F8204600F017F90020AF
:1012F000207720680169090717D5C168090714D547
:1013000029467831016104212177C069800703D023
:101310002046FFF7B2FF05E0204600F07BF82046AC
:1013200000F0FCF80020207720680169C90618D574
:10133000C168C90615D52946703101610821217798
:10134000C0698005800F03D02046FFF796FF05E0B7
:10135000204600F05FF8204600F0E0F800202077FB
:1013600020680169C90709D0C168C90706D02946A4
:101370007F310161204600F031FA206801690906D9
:1013800007D5C168090604D505612046FFF74CFE64
:1013900020680169490609D5C168490606D529466C
:1013A00040310161204600F01AFA2068016989067F
:1013B00007D5C168890604D5603505612046FFF769
:1013C00034FEB0BD10B586B0044601A81421FEF766
:1013D000B4FE2068C449884214D10C480168012237
:1013E00005929204114301600068104000900020B3
:1013F000049003900220029001900098044801A9F3
:10140000FEF7DEFF06B010BD0004004014100240DD
:101410000004004870470000F0B581B005463C204C
:10142000285C012801D1022052E02E463C360127DB
:1014300037700220C241032A48D80C467A441279F8
:1014400052009744011021302868214600F0A8FC82
:101450002868816908220A438261816904229143D4
:10146000816121690EE02868214600F0D5FCF9026F
:10147000286882690A438261B90282698A4382616B
:101480002169090218301EE02868214600F0FEFCA0
:101490002868C16908220A43C261C16904229143D4
:1014A000C16121690EE02868214600F02BFDF90298
:1014B0002868C2690A43C261B902C2698A43C2612B
:1014C000216909021C3002680A4302600020307062
:1014D00001B0F0BDB0B500281DD0044605463C352E
:1014E0006878002804D100202870204600F015F804
:1014F0000220687001CC214600F098FB0120A87200
:10150000A870E87028716871A871E8712872687213
:1015100068700020B0BD0120B0BD704780B504499F
:10152000884200D080BD02480C2100F0DFF880BD69
:101530001401002070470000F0B581B00C4605464C
:101540003E30002905D0082C08D0042C08D1411CBD
:1015500007E001780229014606D010E0811C00E076
:10156000C11C0978022901D10226B2E0082C03D05F
:10157000042C03D1411C02E0811C00E0C11C09784D
:101580000126012900D0A4E0002A02D1002B00D0BE
:101590009FE00221002C05D0082C05D0042C05D199
:1015A000417004E0017002E0817000E0C17002212E
:1015B0002046C84103281AD878440079400087445F
:1015C00001182D42686A44498162686A4349C162D0
:1015D000686A43490163686A2F68343711463A469E
:1015E000FEF79EFE002874D1012041023FE02868EA
:1015F00041E0A86A38498162A86A3849C162A86A8C
:1016000037490163A86A2F68383711463A46FEF712
:1016100087FE00285DD10120810228E0E86A2E497A
:101620008162E86A2D49C162E86A2D490163E86A6E
:101630002F683C3711463A46FEF772FE002848D123
:101640000120C10213E0286B23498162286B2349E2
:10165000C162286B22490163286B2F68403711460D
:101660003A46FEF75DFE002833D1012001032868C9
:10167000C2680A43C2601F210C4001210A46A240F1
:10168000036A93430362036A13430362154A904259
:1016900004DCF74A904213D04C4A03E04C4A904293
:1016A00002D04C4A904206D1CA03436C13434364B0
:1016B000464A904204D002680A430260002608E0CD
:1016C0008268072313400026062B02D002680A43D3
:1016D0000260304601B0F0BDB11C0008191D0008C1
:1016E000511D0008FF4301400004004070B50D4645
:1016F000044602212846C84103282BD878440079A3
:1017000040008744010A131C012040022168CA6876
:101710008243CA602046243019E0012080022168FB
:10172000CA688243CA602046283010E00120C00207
:101730002168CA688243CA6020462C3007E0012035
:1017400000032168CA688243CA60204630300068BE
:10175000FEF73CFD1F212940012002468A402168F6
:101760000B6A93430B620A6A0A62174A174B994243
:1017700005D0174B994202D0164B99420AD10B6AF9
:10178000134207D10B6A144E334203D1C3034E6C8C
:101790009E434E640B6A134206D10A6A0E4B1A42EC
:1017A00002D10A6882430A603E34082D05D0042D18
:1017B00005D0002D05D1207004E0A07002E060701B
:1017C00000E0E070002070BD11110000002C01400D
:1017D0000048014000440140440400007047704745
:1017E000B0B500282DD00446806F002805D17420A4
:1017F00000212154204600F027F82420A06720680B
:1018000001680125A9430160204600F041FC012840
:1018100018D0606A002802D0204600F0A7FB012003
:10182000C102226853688B4353609168082399432F
:101830009160116801431160204600F0F3FB0546FA
:1018400000E001252846B0BD10B586B0044601A8C9
:101850001421FEF772FC2068934988421ED1344857
:101860008168012205925204114381608168114010
:1018700000910099016811430160006810400090D8
:101880000320049000200390022002900C2001907D
:101890000920C006009901A9FEF792FD06B010BD0F
:1018A000FEE7000010B582B0214801680122114313
:1018B000016000681040019001980A240021204630
:1018C0000A46FEF783FF2046FEF774FF02B010BD04
:1018D000F0B587B0002406940127B90514480268C2
:1018E0000A43026002680A40019201997904026881
:1018F0000A43026002680A4001920199B904026831
:101900000A43026000680840019001980920C5065A
:101910004226284631462246FEF728FE05940494C6
:101920000397029602A92846FEF74AFD07B0F0BDCC
:101930001410024010B5134C01200021124A134B21
:1019400023606260A160E060204610301421FEF741
:10195000F4FB2046FEF75AFE002801D0FEF732FCC9
:1019600008480021FEF70EFE002801D0FEF72AFCF1
:1019700004480021FEF728FE002801D0FEF722FCD3
:1019800010BDC046640000200E0900200054004035
:1019900070B50F480821002207230262426282626A
:1019A000C362026341630B4C0125AD041B02412657
:1019B000B60050C0026043608260C2600561416150
:1019C0000838FFF769FA002801D0FEF7FBFB70BD6D
:1019D000B00000200030014010B58EB000240D94FE
:1019E0000C940B940A940994089401A81C21FEF706
:1019F000A4FB8D4884613B21AA4A14C00460416065
:101A000084600838FFF738FB002801D0FEF7DAFBC6
:101A1000012000030A9084480AA9FFF793FB0028DD
:101A200001D0FEF7CFFB8048FFF754FD002801D01E
:101A3000FEF7C8FB099408947B4808A9FFF7F6FA5B
:101A4000002801D0FEF7BEFB0594039402946020A9
:101A50000190754801A90C22FFF7DEFC002801D097
:101A6000FEF7B0FB7048FFF7ADFC0EB010BDC046EE
:101A70000004004010B50B4800210C220A4B016203
:101A80004162E124640218C0016041608160C2606B
:101A9000016141610838FFF7A3FE002801D0FEF77D
:101AA00091FB10BD5C01002000440040FEE7704740
:101AB00070470000F0B582B00F246401314D00265C
:101AC0002E5101702E606E60AE60491E4418627027
:101AD000A3710798E07220460B300090A31D641C90
:101AE00018264E431721C943711A890049190D461A
:101AF000543D0726D7B2F7400122174001A80770CE
:101B00000078012801D1272704E001A800780028E7
:101B100001D112272F60002E03D0761E2D1D2278B2
:101B2000E8E70C46343C08256D1E1878E840104064
:101B300001AE30703078012801D1272604E001A8D9
:101B40000078002801D112262660241D002DEBD13B
:101B500014390823009D5B1E2878D840104001AC42
:101B600020702078012801D1272404E001A8007802
:101B7000002801D112240C60091D002BEBD102B00A
:101B8000F0BDC046E001002080B5FEF7C3FD80BD7A
:101B900070B596B00AAC204608301821FEF7CDFA91
:101BA0000025099508950795069501A81421FEF7CB
:101BB000C4FA1595012081041491010413910226A1
:101BC000129610210E910D900B9003200A90204642
:101BD000FEF76CFF002803D0EFF3108072B6FEE72B
:101BE0000995089507960720069006A80121FEF79B
:101BF00091FE002803D0EFF3108072B6FEE7049543
:101C00002020019001A8FEF701FE002803D0EFF389
:101C1000108072B6FEE716B070BD704780B50248FE
:101C2000FFF72CFB80BDC0461401002010B50468EE
:101C3000CB4A904202D01B4B984204D170239C4364
:101C40004B68234300E02346174CA04206DD904238
:101C50000AD0C44CA04207D0C34C03E0114CA042B0
:101C600002D0124CA0421AD103242402A343CC6810
:101C70001C4380239C434B69234303608B68C362EE
:101C80000B688362904205D0B64A904202D0B64AB1
:101C9000904201D1096901630121416110BD1C46D7
:101CA000E7E7C04600040040FF2B01400020004051
:101CB00010B5446A21463E31626A824210D0A26A5F
:101CC000824214D0E26A824219D0226B82421DD134
:101CD000082222778069002818D10120C87015E0F9
:101CE000012222778069002810D10A700EE00222BA
:101CF00022778069002809D10120487006E004227B
:101D000022778069002801D1012088702046FFF7E2
:101D100005FC0020207710BD10B5446A616A81423D
:101D20000AD0A16A814209D0E16A814208D0216BC0
:101D3000814207D1082004E0012002E0022000E0F7
:101D4000042020772046FFF7F5FB0020207710BD08
:101D500010B5446A21463D31626A82420BD0A26AC4
:101D600082420BD0E26A82420CD0226B82420DD0BA
:101D7000012008700EE0012048700AE00120887000
:101D8000022006E00120C870042002E00120087152
:101D9000082020772046FFF76FFA0020207710BD3B
:101DA000F0B581B0026A01239A430262026A0223FB
:101DB0009A438E68164344680A6800928369684FA4
:101DC000B84205D0674DA84202D0674DA84206D15F
:101DD0000C25AE43CD6804229543354300E03546DB
:101DE000B84205D05F4A904202D05F4A904207D184
:101DF0000322120294434E698A692643164300E087
:101E00002646466073229343009A134383614968D0
:101E10004163056201B0F0BDF0B581B0026A1023E4
:101E20009A430262026A20239A438B681E0116437A
:101E300044680A6800928269494FB84201D0354629
:101E400006E0C025AE43CD682D0140239D433543B8
:101E5000B84205D0434B984202D0434B984208D138
:101E600003239B029C434B698E699B002343B40070
:101E70001C43446073231B029A43009B1B021343C1
:101E8000836149688163056201B0F0BDF0B581B03E
:101E900001221302046A9C4304625202036A9343C0
:101EA0008A6816021E4344680A680092C3692C4F70
:101EB000B84201D0354607E00325AD02AE43CD68F8
:101EC0002A020F4D15403543B84205D0254A9042AD
:101ED00002D0254A904208D10322120394434A6952
:101EE0008E691201224334011443446073229343E8
:101EF000009A1343C3614968C163056201B0F0BD34
:101F000000FBFFFFF0B581B001221303046A9C437C
:101F10000462036A44688D6800950E68C569104FB5
:101F2000B84205D00F4FB84202D00F4FB84205D18A
:101F30009703BC434F69BF01274300E02746476032
:101F400073242402A54334022C43C461496801640C
:101F500051038B43009909031943016201B0F0BD9D
:101F6000002C01400048014000440140B0B5416AE6
:101F7000CA0707D00122520403685C689443826A4E
:101F800022435A608A0707D50122120403685C685D
:101F90009443C26A22435A604A0707D50122920439
:101FA00003685C689443026B22435A600A0707D5B2
:101FB0000122D20303685C689443426B22435A6057
:101FC000CA0607D50122120303689C689443826BFA
:101FD00022439A608A0607D50122520303689C684F
:101FE0009443C26B22439A604A0610D5012213051E
:101FF000026854689C43056C2C4354609D4206D192
:1020000003235B0554689C43436C234353600906D8
:1020100007D50121C904026853688B43806C1843BB
:102020005060B0BD70B582B00546802000242C50B1
:10203000FEF7A4FA06462868016809070BD513487D
:1020400000900120410500222846334600F0AEF8FA
:1020500000280ED12868006840070CD50B48009076
:102060000120810500222846334600F09FF8002811
:1020700001D0032406E0284674302021A967E967CF
:1020800004702C66204602B070BDC046FFFFFF0101
:10209000B0B50446006801683A4A0A40A16823695D
:1020A0000B4365691D43E1690D4315430560032238
:1020B000120343689343E2681A434260A269236AA9
:1020C00013430B221202856895431D4385602E4AF7
:1020D000904209D02D4A904208D12D4800688007CF
:1020E000000F2CA2135802E0002300E0102301256A
:1020F000EA032C4891420DD1082B3DD87B441B7933
:102100005B009F4404391B39153939391A00FEF731
:1021100085FC0FE0082B2FD87B441B795B009F4484
:10212000042B202B1A2B2B2B1F00FEF777FC14E01F
:10213000FEF782FC002801D11DE0104640006168D6
:102140004A081018FEF704F81749014014D0000798
:10215000400F08430DE0FEF76FFC002801D10AE0B4
:10216000104661684A081018FDF7F2FF80B2102887
:1021700002D32168C860002500206066A06628465A
:10218000B0BDC046F369FFEF004400400038014095
:1021900030100240000000000400000008000000B1
:1021A0000200000000127A00F0FF0000F0B585B0D8
:1021B000049317460D4604460168C8692840401B31
:1021C000424242410020BA4245D10290204674303A
:1021D00001900A9E01200090C0020390701C0FD055
:1021E000FEF7CCF921680A68002E12D0049BC01AB1
:1021F000B0420ED8500703D5C869039A104217D1D0
:10220000C8692840401B42424241BA42E6D0029887
:1022100021E00D20400182430A608868009A9043C3
:1022200088602020A0670021019A1170E06711E00A
:10223000039808620D2040010A6882430A6088689A
:10224000009A904388602020A067E0670021019AEF
:102250001170D060032005B0F0BD000080B52548A6
:102260000C21024A7C23FFF767F980BDE0010020C2
:1022700082B0FEF759FAFFF78BFCFFF729FBFFF757
:1022800011FBFFF757FBFFF7A7FBFFF7F3FBFFF788
:102290007FFB1848FFF71EF9174C782200920121A6
:1022A00020460B46FFF706FC002500950221FF267D
:1022B00020462A463346FFF7FDFB009603212046C1
:1022C00032463346FFF7F6FB00950421204632469E
:1022D0002B46FFF7EFFB0095052120462A462B46AB
:1022E000FFF7E8FBFFF7BAFF7D20C000FEF758F8C4
:1022F000D3E7C046140100201000002002E008C807
:10230000121F08C1002AFAD170477047002001E06F
:1023100001C1121F002AFBD170470000000000001D
:102320000000010203040607080900000000010282
:1023300003040000582300080000002010000000E3
:10234000FC2200086823000810000020C8070000D5
:102350000C2300080000000000127A0001000000B9
:08236000040000000000000071
:04000005080000C12E
:00000001FF
