:020000040800F2
:10000000C8170020D5000008252500086123000836
:1000100000000000000000000000000000000000E0
:100020000000000000000000000000002B25000878
:100030000000000000000000292500084D270008EE
:100040000501000800000000050100080501000886
:100050000501000805010008050100080501000868
:1000600000000000050100088502000805010008E5
:100070000501000805010008050100080000000056
:10008000BD27000800000000000000000501000876
:100090000000000005010008050100080501000836
:1000A0000000000005010008000000000501000834
:1000B0000501000800000000000000000501000824
:1000C0000348854600F0CCF8004800479135000809
:1000D000C81700200C4880F308880C480168090EF6
:1000E0000B4A914205D10B480B4901600B480C4962
:1000F00001600C4880470C480047FEE7FEE7FEE73A
:10010000FEE7FEE7FEE70000C8170020040000003D
:100110001F00000018100240010000000000014014
:1001200000000000B9270008C1000008F0B51FB4A6
:100130000646002082B005464024019100901BE055
:10014000019922460F46304600F038F8049A059B84
:10015000801A994110D310461946224600F070F8D3
:10016000361A8F410197224601200021009F00F09E
:1001700067F838184D4100902046641E0028DFDCE7
:10018000019B00982946324607B0F0BD30B5434385
:1001900051435C18010C130C0D465D432C1980B2C1
:1001A00092B20546554351430A0C09044D19624168
:1001B0005843010C00044019514130BD10B5202AAC
:1001C00004DB0846203AD040002110BD0B46D34046
:1001D000D0402024A21A91400843194610BDD2B243
:1001E00001E00270401C491EFBD270470022F6E776
:1001F00010B513460A4604461946FFF7F0FF20469D
:1002000010BD70B50446002903D000202022012330
:1002100010E0002801D00020C043C046C0460DE0D9
:100220002546D5408D4205D30D469540641B1D469D
:10023000954040191546521E002DF1DC214670BD37
:1002400010B5202A04DB0146203A9140002010BD61
:10025000914020239C1A0346E3401943904010BD6F
:10026000064C0125064E05E0E36807CC2B430C3C09
:1002700098471034B442F7D3FFF726FF84360008BE
:10028000A436000880B5024800F089F880BDC04659
:10029000A400002080B582B0019001980168084A4E
:1002A00089181422009008461146FFF7AAFF800023
:1002B000009908640198034AC26302B080BDC04639
:1002C000F8FFFDBF0000024084B00390029101924C
:1002D00000930398016C01228A40C06B4260009831
:1002E00003990968486003984068102809D1FFE71E
:1002F0000198039909688860029803990968C860A1
:1003000008E00298039909688860019803990968D0
:10031000C860FFE704B0704781B0EFF3108072B699
:100320000090FFE7FEE780B582B0019068460021AB
:10033000017001982121405C022807D0FFE7019855
:100340000421816368460121017024E0019800685E
:1003500001680E2291430160019800680168012242
:10036000914301600198016C13468B40C06B436060
:10037000019821214254FFE7019820210022425494
:10038000FFE70198406B002804D0FFE70198416B1C
:100390008847FFE7FFE76846007802B080BD80B578
:1003A00084B003900398C06B0068029003980068C3
:1003B0000068019002980399096CC8404007002822
:1003C00024D5FFE701A80078400700281ED5FFE7E5
:1003D0000398006800688006002807D4FFE70398A8
:1003E00000680168042291430160FFE70398016CF3
:1003F00004228A40C06B42600398C06A002804D07F
:10040000FFE70398C16A8847FFE767E0029803990E
:10041000096CC840800700282ED5FFE701A80078A6
:100420008007002828D5FFE7039800680068800649
:1004300000280BD4FFE70398006801680A22914363
:1004400001600398212101224254FFE70398016CC7
:1004500002228A40C06B4260FFE7039820210022FD
:100460004254FFE70398806A002804D0FFE703980E
:10047000816A8847FFE730E002980399096CC84019
:100480000007002828D5FFE701A80078000700280A
:1004900022D5FFE70398006801680E2291430160AE
:1004A0000398016C012213468B40C06B4360039894
:1004B0008263039821214254FFE703982021002200
:1004C0004254FFE70398006B002804D0FFE703982D
:1004D000016B8847FFE7FFE7FFE7FFE704B080BD58
:1004E00080B584B00290002001900298002804D1C9
:1004F000FFE703A80121017031E0029821210222C7
:10050000425402980068006801900198164A104011
:1005100001900298426883681A43C3681A430369CA
:100520001A4343691A4383691A43C0690243019815
:10053000104301900198029A12681060029800918D
:10054000FFF7A8FE02980021816302980122009B18
:10055000C25402982022815403A80170FFE703A827
:10056000007804B080BDC0460FC0FFFF80B586B0E4
:100570000490039102920193684600210170FFE705
:1005800004982021405C012804D1FFE705A802213E
:1005900001704CE00498202101224254FFE7FFE75C
:1005A00004982121405C012833D1FFE704982121E0
:1005B0000222425404980021816304980068016873
:1005C00001229143016004980399029A019BFFF76D
:1005D0007BFE0498C06A002807D0FFE704980068F3
:1005E00001680E22114301600CE004980068016864
:1005F0000A221143016004980068016804229143B3
:100600000160FFE70498006801680122114301605E
:1006100009E0FFE70498202100224254FFE76846E2
:1006200002210170FFE7009805A90870FFE705A8FF
:10063000007806B080BD000080B584B0039000F063
:10064000A9F90290039801900198401C002806D057
:10065000FFE7D6480078019908180190FFE7FFE707
:1006600000F098F90299401A0199884201D2FFE7F7
:10067000F6E704B080BDC0468BB00A900991002017
:100680000890FFE7099800680899C840002800D141
:1006900053E109980068089901228A4010400790A8
:1006A0000798002800D144E10998406801280FD03C
:1006B000FFE70998406802280AD0FFE709984068D8
:1006C000112805D0FFE70998406812282CD1FFE7D0
:1006D0000A98806806900898400003218140069897
:1006E000884306900998C06808994900884006998F
:1006F0000143069106980A9988600A984068069016
:10070000089801218140069888430690099840681E
:100710001021084000090899884006990143069174
:1007200006980A994860FFE70A98C06806900898FA
:10073000400003218140069888430690099880680C
:1007400008994900884006990143069106980A993C
:10075000C86009984068022805D0FFE709984068FA
:10076000122820D1FFE70A980899C9088900401883
:10077000006A069008984007C00E0F218140069835
:10078000884306900998006908994907C90E88406E
:1007900006990143069106980A99089AD208920090
:1007A00089180862FFE70A980068069008984000D8
:1007B00003210A46824006989043069009984068B3
:1007C0000840089949008840069901430691069817
:1007D0000A9908600998C079C006002800D4A7E0EB
:1007E000FFE7A8480168012211430160006810403A
:1007F00005900598FFE70898032188435049405821
:10080000069008988007000F0F21814006988843C2
:1008100006900A980921C906884203D1FFE7002003
:10082000049022E00A984749884203D1FFE701205B
:10083000039017E00A984449884203D1FFE7022059
:1008400002900CE00A984149032205238842019353
:10085000009201D00198009000980290FFE7029862
:100860000390FFE703980490FFE70498089989072D
:10087000090F8840069901430691069808990322BA
:1008800091432F4A8850324800680690079806998D
:100890008143069109988079C007002805D0FFE7B9
:1008A0000798069901430691FFE7069828490860D2
:1008B0002848006806900798069981430691099890
:1008C00080798007002805D5FFE70798069901433E
:1008D0000691FFE706981F4908601F4800680690C8
:1008E000079806998143069109988079C0060028E7
:1008F00005D5FFE70798069901430691FFE706989B
:1009000015490860154800680690079806998143C4
:100910000691099880798006002805D5FFE7079899
:10092000069901430691FFE706980C490860FFE726
:10093000FFE70898401C0890A4E60BB07047C0463B
:10094000080001400004004800080048000C00486E
:100950000004014004040140080401400C0401406B
:1009600010B583B013460C46029001A8018068467A
:1009700002700078002805D0FFE701A800880299DE
:10098000886104E001A8008802998862FFE703B04B
:1009900010BD0000064800687047C0462A4800782D
:1009A00003490A68101808607047C0460400002018
:1009B000C413002080B582B0AF48016810221143F3
:1009C00001600020019000F007F8009000F040F86E
:1009D000019802B080BDC04680B586B00490AC4896
:1009E0000068194909787D22D20003901046FFF76C
:1009F00008FC0399029008460299FFF702FC00F0F8
:100A000037FD002804D0FFE705A80121017017E099
:100A1000049803280CD8FFE704990020C2430190F2
:100A20001046019A00F03EF804980849086003E077
:100A300005A80121017003E005A800210170FFE76E
:100A400005A8007806B080BD040000200800002042
:100A500082B0FFE70B480168012211430160006882
:100A6000104001900198FFE7FFE707480168012265
:100A70001207114301600068104000900098FFE7E2
:100A800002B07047181002401C10024080B582B0BE
:100A9000014601AA1070107840B2009102F01EFDCC
:100AA00002B080BD10B584B0034603AC2070029143
:100AB0000192207840B20299009302F025FD04B023
:100AC00010BD000080B586B0049003910498002802
:100AD00004D1FFE705A801210170C8E00398664929
:100AE000096801221140884212D9FFE76248016873
:100AF00001229143039B1943016000681040039950
:100B0000884204D0FFE705A801210170AFE0FFE7AC
:100B1000049800788007002816D5FFE7049800782D
:100B20004007002807D5FFE79D4801680722120209
:100B300011430160FFE79A480168F0229143049A4B
:100B4000926811430160FFE704980078C00700280D
:100B500050D0FFE70498406801280BD1FFE74748D1
:100B600000688003002804D4FFE705A80121017074
:100B70007DE01BE00498406802280BD1FFE73F4866
:100B800000688001002804D4FFE705A80121017056
:100B90006DE00AE0394800688007002804D4FFE7C8
:100BA00005A80121017062E0FFE7FFE77C480168CA
:100BB00003229143049A526811430160FFF7EAFE51
:100BC0000290FFE7764800680C21084004994968C4
:100BD000890088420DD0FFE7FFF7DCFE0299401A3A
:100BE0002849884204D3FFE705A8032101703EE0AD
:100BF000E8E7FFE70398204909680122114088428D
:100C000012D2FFE71C48016801229143039B19435C
:100C10000160006810400399884204D0FFE705A8EE
:100C20000121017023E0FFE70498007840070028C5
:100C30000AD5FFE75A480168072212029143049A35
:100C4000D26811430160FFE700F034F854490968A5
:100C5000C9B209090A4A515CC8400D490860002020
:100C60000190FFF7B9FE05A9019A0A70FFE705A8F0
:100C7000007806B080BDC04600200240001002404F
:100C80006A36000889130000014800687047C046B2
:100C90000000002080B5FFF7F7FF414909680722EF
:100CA00012021140090A024A515CC84080BDC04688
:100CB0007A36000880B590B031480F9031480E90D8
:100CC00031480D9031480C9031480B9031480A90D2
:100CD000314809903148089000200790069005900F
:100CE000049003902E480068079007980C21084054
:100CF000002802903DD0FFE70298042804D0FFE7C7
:100D00000298082803D035E02848039035E007987A
:100D10000F218A041040800C0CAA105C049021481A
:100D20000068084008A9085C069007980321C903D9
:100D300008400121090488420CD1FFE7069A1B48AC
:100D400000210191019BFFF7F1F9049AFFF71EFAC8
:100D500005900BE0069A144800210091009BFFF7D4
:100D6000E5F9049AFFF712FA0590FFE7059803905A
:100D700003E0FFE70C480390FFE7039810B080BD45
:100D80000E0F10100A0B0C0D0607080902030405CC
:100D90000D0E0F10090A0B0C0506070801020304CB
:100DA000041002402C10024000127A000024F400CB
:100DB00080B588B006900698002804D1FFE707A800
:100DC000012101703EE306980078C007002800D199
:100DD00097E0FE4800680C210840042811D0FFE786
:100DE000FA4800680C21084008281AD1FFE7F748A4
:100DF00000680321C903084001210904884210D179
:100E0000FFE7F34800688003002809D5FFE706984C
:100E10004068002804D1FFE707A80121017011E311
:100E20006EE0FFE706984068012807D1FFE7E84831
:100E3000016801221204114301602CE00698406809
:100E400000280BD1FFE7E24801680122130499430F
:100E5000016001689204914301601BE006984068BC
:100E600005280BD1FFE7DA480168012293041943F2
:100E7000016001681204114301600AE0D44801686E
:100E800001221304994301600168920491430160B7
:100E9000FFE7FFE7FFE7FFE706984068002817D065
:100EA000FFE7FFF777FD0590FFE7C948006880037B
:100EB00000280CD4FFE7FFF76DFD0599401A65285F
:100EC00004D3FFE707A803210170BBE2EDE716E0BA
:100ED000FFF760FD0590FFE7BD480068800300282C
:100EE0000CD5FFE7FFF756FD0599401A652804D396
:100EF000FFE707A803210170A4E2EDE7FFE7FFE7A2
:100F0000FFE706980078800700287AD5FFE7AF480A
:100F100000680007800F002811D0FFE7AB48006889
:100F20000C210840082824D1FFE7A84800680321C5
:100F3000C90308400121C90388421AD1FFE7A44828
:100F400000688007002809D5FFE70698C0680128D7
:100F500004D0FFE707A80121017073E29C480168F3
:100F6000F8229143069A1269D20011430160FFE70B
:100F700046E00698C068002825D0FFE7944801683D
:100F8000012211430160FFF705FD0590FFE790483E
:100F90000068800700280CD4FFE7FFF7FBFC0599E9
:100FA000401A032804D3FFE707A80321017049E290
:100FB000EDE787480168F8229143069A1269D2004A
:100FC000114301601BE082480168012291430160E6
:100FD000FFF7E0FC0590FFE77D48006880070028E8
:100FE0000CD5FFE7FFF7D6FC0599401A032804D378
:100FF000FFE707A80321017024E2EDE7FFE7FFE721
:10100000FFE706980078000700283ED5FFE706981E
:10101000C06900281CD0FFE76E4801680122114317
:101020000160FFF7B7FC0590FFE76A48006880079A
:1010300000280CD4FFE7FFF7ADFC0599401A032800
:1010400004D3FFE707A803210170FBE1EDE71BE0F4
:1010500060480168012291430160FFF79BFC059005
:10106000FFE7FC480068800700280CD5FFE7FFF782
:1010700091FC0599401A032804D3FFE707A8032130
:101080000170DFE1EDE7FFE7FFE706980078400732
:10109000002800D4BBE002A800210170EE480068DF
:1010A000C000002810D4FFE7FFE7EB4801680122E9
:1010B0001207114301600068104001900198FFE79A
:1010C00002A801210170FFE7E4480068C00500287C
:1010D0001DD4FFE7E14801680122120211430160BB
:1010E000FFF758FC0590FFE7DC480068C0050028C2
:1010F0000CD4FFE7FFF74EFC0599401A652804D38E
:10110000FFE707A8032101709CE1EDE7FFE7FFE798
:1011100006988068012806D1FFE7D14801680122BE
:101120001143016029E00698806800280AD1FFE792
:10113000CB48016801229143016001680422914378
:10114000016019E00698806805280AD1FFE7C448C5
:10115000016804221143016001680122114301600A
:1011600009E0BF480168012291430160016804223F
:1011700091430160FFE7FFE7FFE7FFE7069880681C
:10118000002818D0FFE7FFF705FC0590FFE7B448FB
:101190000068800700280DD4FFE7FFF7FBFB0599E7
:1011A000401AB049884204D3FFE707A80321017021
:1011B00048E1ECE71EE0FFF7EDFB0590FFE7A848EC
:1011C00000688007002814D506E0C04604100240DD
:1011D0000010024024100240FFF7DCFB0599401A82
:1011E000A049884204D3FFE707A80321017029E141
:1011F000E5E7FFE702A80078012807D1FFE7964856
:1012000001680122120791430160FFE7FFE706989A
:101210000078C006002864D5FFE7069840690128D9
:1012200029D1FFE790480168042211430160016859
:10123000012211430160FFF7ADFB0590FFE78A48EB
:101240000068800700280CD4FFE7FFF7A3FB05998F
:10125000401A032804D3FFE707A803210170F1E037
:10126000EDE781480168F8229143069A9269D2001D
:101270001143016034E006984069401D00280ED1FA
:10128000FFE7794801680422914301600168F82270
:101290009143069A9269D200114301601FE072489F
:1012A0000168042211430160016801229143016039
:1012B000FFF770FB0590FFE76B4800688007002888
:1012C0000CD5FFE7FFF766FB0599401A032804D306
:1012D000FFE707A803210170B4E0EDE7FFE7FFE7B0
:1012E000FFE70698006A002800D1A7E05748006889
:1012F0000C210840082871D0FFE70698006A0228F0
:101300004ED1FFE752480168012212069143016065
:10131000FFF740FB0590FFE74D480068800100287B
:101320000CD5FFE7FFF736FB0599401A032804D3D5
:10133000FFE707A80321017084E0EDE7FFE74B48D2
:1013400001680F229143069AD26A114301603F4817
:1013500001687B22D2039143069A936A526A13432F
:1013600019430160FFE73A48016801221206114360
:101370000160FFF70FFB0590FFE73548006880012B
:1013800000280CD4FFE7FFF705FB0599401A032856
:1013900004D3FFE707A80321017053E0EDE71CE049
:1013A0002B4801680122120691430160FFF7F2FA0F
:1013B0000590FFE726480068800100280CD5FFE76C
:1013C000FFF7E8FA0599401A032804D3FFE707A8B6
:1013D0000321017036E0EDE7FFE72EE00698006A92
:1013E000012804D1FFE707A8012101702AE017486E
:1013F000006804901D480068039004980321C90305
:1014000008400699496A884211D1FFE703980F21E5
:1014100008400699C96A884209D1FFE704980F215C
:10142000890408400699896A884204D0FFE707A822
:101430000121017006E0FFE7FFE7FFE707A80021B1
:101440000170FFE707A8007808B080BD04100240D3
:1014500000100240241002401C10024000700040A6
:101460002010024089130000341002402C1002406A
:1014700080B582B00190019801F03EF902B080BDC4
:1014800081B0009001B0704781B0009001B070470A
:1014900085B003900291FFE703983C21405C01284E
:1014A00004D1FFE704A80221017046E003983C2123
:1014B00001224254FFE7FFE703983D2102224254F4
:1014C0000398006840680190039800688068009065
:1014D00001987021884301900298006801990143A6
:1014E00001910198039909684860039800681549BB
:1014F000884206D0FFE703980068614988420ED110
:10150000FFE7009880218843009002984068009986
:10151000014300910098039909688860FFE70398E8
:101520003D2101224254FFE703983C21002242540E
:10153000FFE704A800210170FFE704A8007805B0C8
:101540007047C046002C014080B584B002900298DC
:10155000002804D1FFE703A80121017042E00298AE
:101560003D21405C002808D1FFE702983C21002281
:101570004254029800F03AF8FFE702983D21022217
:101580004254029802C801900846019901F01EF9E0
:101590000298462101224254FFE702983E2101228F
:1015A000425402983F2142540298402142540298EA
:1015B00041214254FFE7FFE70298422101224254B1
:1015C00002984321425402984421425402984521F2
:1015D0004254FFE702983D210122425403A8002112
:1015E0000170FFE703A8007804B080BD80B584B027
:1015F000039003980068224988423ED1FFE7FFE745
:1016000020480168022211430160006810400290E6
:101610000298FFE71C481D4901601021416000212C
:1016200081608022C260012253020361D2024261C2
:10163000816103210903C161FEF752FF002803D035
:10164000FFE7FEF769FEFFE7FFE703980E49016336
:1016500003984862FFE7FFE703980B49016203988C
:101660004862FFE71020002101900091009AFFF7E7
:1016700019FA0198FFF70AFAFFE704B080BDC046E7
:10168000000400401C100240A40000203000024072
:1016900080B58AB008900791FFE708983C21405C2C
:1016A000012804D1FFE709A802210170BCE00898D5
:1016B0003C2101224254FFE7FFE708983D21022226
:1016C00042540898006880680690069877218843FD
:1016D00006900698FF21090288430690069808990B
:1016E00009688860079800680028059000D185E0A7
:1016F0000598102800D181E0059820287ED0FFE7CA
:10170000059830287AD0FFE70598402866D0FFE793
:101710000598502842D0FFE7059860284ED0FFE793
:10172000059870280DD0FFE701200003059981423C
:1017300006D0FFE701204003059981421AD064E0FA
:1017400064E00898006807998A684B68C968049142
:1017500011461A46049B01F0ABF9089800688068AE
:10176000069006987721084306900698089909681C
:1017700088604BE00898006807998A684B68C968D8
:10178000039111461A46039B01F092F908980068EC
:101790008168012292031143816037E00898006854
:1017A00007994A68C96802911146029A01F092FBB2
:1017B00008980068502101F096F927E00898006821
:1017C00007994A68C96801911146019A01F0AAFB7C
:1017D00008980068602101F086F917E00898006811
:1017E00007994A68C96800911146009A01F072FB96
:1017F00008980068402101F076F907E00898006831
:101800000799096801F06FF900E0FFE708983D21AA
:1018100001224254FFE708983C2100224254FFE78E
:1018200009A800210170FFE709A800780AB080BD6F
:1018300081B0009001B0704781B0009001B0704756
:1018400080B582B0019001980068006902210840CB
:101850004008002828D0FFE701980068C0680221EE
:101860000840400800281ED0FFE7019800680221C8
:10187000C9430161019801210177019800688069DD
:101880008007002804D0FFE70198FFF7D5FF06E0A6
:10189000019800F03BF9019800F030FAFFE7019859
:1018A00000210177FFE7FFE7019800680069042144
:1018B00008408008002829D0FFE701980068C06828
:1018C00004210840800800281FD0FFE70198006825
:1018D0000421C94301610198022101770198006840
:1018E00080698005800F002804D0FFE70198FFF78A
:1018F000A3FF06E0019800F009F9019800F0FEF955
:10190000FFE7019800210177FFE7FFE701980068F2
:10191000006908210840C008002828D0FFE7019886
:101920000068C06808210840C00800281ED0FFE7F2
:10193000019800680821C9430161019804210177D9
:1019400001980068C0698007002804D0FFE701986B
:10195000FFF772FF06E0019800F0D8F8019800F058
:10196000CDF9FFE7019800210177FFE7FFE7019834
:1019700000680069102108400009002829D0FFE70D
:1019800001980068C06810210840000900281FD095
:10199000FFE7019800681021C943016101980821FF
:1019A000017701980068C0698005800F002804D085
:1019B000FFE70198FFF740FF06E0019800F0A6F866
:1019C000019800F09BF9FFE7019800210177FFE7FC
:1019D000FFE7019800680069C007002811D0FFE701
:1019E00001980068C068C007002809D0FFE7019887
:1019F00000680121C9430161019800F015FCFFE76F
:101A0000FFE7019800680069C0B2C009002812D041
:101A1000FFE701980068C068C0B2C009002809D07B
:101A2000FFE7019800688021C94301610198FFF731
:101A300027FDFFE7FFE701980068006940210840A3
:101A40008009002813D0FFE701980068C068402192
:101A500008408009002809D0FFE70198006840216C
:101A6000C9430161019800F0E3FBFFE7FFE701983C
:101A700000680069202108404009002813D0FFE7D2
:101A800001980068C068202108404009002809D05A
:101A9000FFE7019800682021C94301610198FFF721
:101AA000F3FCFFE7FFE702B080BD000080B588B01F
:101AB00007900020069005900490039002900798EC
:101AC00000680F49884219D1FFE7FFE70D48016818
:101AD00001229204114301600068104001900198B6
:101AE000FFE702200290039000200490059001205F
:101AF0000690054802A9FEF7BFFDFFE708B080BDCC
:101B000000040040141002400004004881B000901E
:101B100001B0704780B586B0049003910292FFE750
:101B200004983C21405C012804D1FFE705A802216C
:101B3000017089E004983C2101224254FFE7FFE74D
:101B400002980C28019000D973E00198784400793C
:101B500040008744066E6E6E1F6E6E6E3A6E6E6E3D
:101B6000530004980068039900F0D2FF04980068BD
:101B70008169082211438161049800688169042207
:101B80009143816103980069049909688A69024355
:101B90008A614FE004980068039901F035F80498D1
:101BA000006881690122D3021943816104980068A9
:101BB000816992029143816103980069000204994E
:101BC00009688A6902438A6134E0049800680399CD
:101BD00001F0A0F804980068C16908221143C161AE
:101BE00004980068C16904229143C16103980069A7
:101BF00004990968CA690243CA611BE00498006835
:101C0000039901F00BF904980068C1690122D3021D
:101C10001943C16104980068C16992029143C1618E
:101C200003980069000204990968CA690243CA61FD
:101C300000E0FFE7FFE704983C2100224254FFE761
:101C400005A800210170FFE705A8007806B080BD57
:101C500080B584B002900298002804D1FFE703A861
:101C60000121017042E002983D21405C002808D12A
:101C7000FFE702983C2100224254029800F03AF813
:101C8000FFE702983D2102224254029802C80190C7
:101C90000846019900F09AFD02984621012242541B
:101CA000FFE702983E210122425402983F2142540C
:101CB000029840214254029841214254FFE7FFE735
:101CC0000298422101224254029843214254029830
:101CD00044214254029845214254FFE702983D2195
:101CE0000122425403A800210170FFE703A80078F5
:101CF00004B080BD81B0009001B0704780B582B063
:101D0000019001980549884205D1FFE703480C215D
:101D100000F0BAF9FFE702B080BDC046E80000203D
:101D200081B0009001B0704710B596B01C46149079
:101D30001391129211A803801398002805D1FFE790
:101D400014983E21405C0F901CE01398042805D1A4
:101D5000FFE714983F21405C0E9010E0139808288C
:101D600005D1FFE714984021405C0D9004E01498E1
:101D70004121405C0D90FFE70D980E90FFE70E9813
:101D80000F90FFE70F98022804D1FFE715A8022162
:101D900001706CE11398002805D1FFE714983E21EB
:101DA000405C0C901CE01398042805D1FFE71498C0
:101DB0003F21405C0B9010E01398082805D1FFE705
:101DC00014984021405C0A9004E014984121405C42
:101DD0000A90FFE70A980B90FFE70B980C90FFE73B
:101DE0000C98012837D1FFE71298002809D1FFE7A6
:101DF00011A80088002804D0FFE715A80121017070
:101E000035E11398002805D1FFE714983E210222FE
:101E100042541EE01398042806D1FFE714983F218E
:101E200002224254099212E01398082806D1FFE7D3
:101E30001498402102224254089205E0149841214E
:101E4000022242540892FFE708980990FFE7099898
:101E5000FFE7FFE703E015A80121017007E1FFE7B5
:101E600013980C28079000D9ABE0079878440079C4
:101E70004000874406A6A6A62EA6A6A656A6A6A6F7
:101E80007E001498406A7C4981621498406A7B49BC
:101E9000C1621498406A7A4901631498416A129A9F
:101EA0000068343011AB1B88069008461146069A2C
:101EB000FEF75CFB002804D0FFE715A801210170A4
:101EC000D5E014980068C168012252021143C16034
:101ED00078E01498806A684981621498806A67493A
:101EE000C1621498806A664901631498816A129AE3
:101EF0000068383011AB1B88059008461146059ADA
:101F0000FEF734FB002804D0FFE715A8012101707B
:101F1000ADE014980068C168012292021143C160CB
:101F200050E01498C06A544981621498C06A5349B9
:101F3000C1621498C06A524901631498C16A129A26
:101F400000683C3011AB1B88049008461146049A87
:101F5000FEF70CFB002804D0FFE715A80121017053
:101F600085E014980068C1680122D2021143C16063
:101F700028E01498006B404981621498006B3F4937
:101F8000C1621498006B3E4901631498016B129A68
:101F90000068403011AB1B88039008461146039A35
:101FA000FEF7E4FA002804D0FFE715A8012101702C
:101FB0005DE014980068C168012212031143C160FA
:101FC00000E0FFE71498006813990122029200F0E4
:101FD0006DFC149800688F4988420298019010D0D7
:101FE000FFE71498006801218B4A9042019108D0C4
:101FF000FFE7149800688949401841424841019020
:10200000FFE70198C007002808D0FFE71498006890
:10201000416C0122D20311434164FFE71498006828
:102020007C49884206D0FFE7149800681549884229
:1020300012D1FFE7149800688068072108401090CB
:102040001098062807D0FFE714980068016801225D
:1020500011430160FFE706E014980068016801225F
:1020600011430160FFE715A800210170FFE715A8E3
:10207000007816B010BDC046DF280008A32900086C
:10208000172A00080004004080B586B0059004912E
:1020900004980C2803903CD80398C04678440079F3
:1020A0004000874406363636123636361E36363609
:1020B0002A0005980068C168012252029143C1605C
:1020C0000598406AFEF72FF924E005980068C1687A
:1020D000012292029143C1600598806AFEF723F9BC
:1020E00018E005980068C1680122D2029143C160DE
:1020F0000598C06AFEF717F90CE005980068C168FA
:10210000012212039143C1600598006BFEF70BF9A1
:1021100000E0FFE7059800680499002200F0C6FB84
:102120000598006801213B4A9042029110D0FFE7D8
:10213000059800680121384A9042029108D0FFE7D3
:102140000598006835494018414248410290FFE730
:102150000298C00700281AD0FFE7FFE7059800683B
:10216000006A2F49084210D1FFE705980068006A0D
:102170002C49084208D1FFE705980068416C01220C
:10218000D20391434164FFE7FFE7FFE7FFE7FFE783
:1021900005980068006A224908420FD1FFE70598B8
:1021A0000068006A1F49084207D1FFE705980068E8
:1021B0000168012291430160FFE7FFE7FFE7049810
:1021C000002805D1FFE705983E21012242541EE078
:1021D0000498042806D1FFE705983F2101224254C4
:1021E000019212E00498082806D1FFE705984021E3
:1021F00001224254009205E00598412101224254F7
:102200000092FFE700980190FFE70198FFE70020A8
:1022100006B080BD002C01400044014000B8FEBF64
:10222000111100004404000081B0009001B070471B
:1022300081B0009001B0704780B582B000900098E6
:10224000002804D1FFE701A80121017047E00098B0
:102250008069002801D0FFE700E0FFE70098806F69
:10226000002808D1FFE7009874210022425400980A
:1022700000F03AF8FFE70098242181670098006891
:102280000168012291430160009800F075FF012868
:1022900004D1FFE701A80121017020E00098406A05
:1022A000002804D0FFE7009800F066FEFFE70098E2
:1022B000006841680122D302994341600098006898
:1022C0008168082399438160009800680168114380
:1022D0000160009800F0FEFE01A90870FFE701A868
:1022E000007802B080BD000080B588B00790002063
:1022F0000690059004900390029007980068884922
:10230000884228D1FFE7FFE7144801680122520400
:10231000114301600068104001900198FFE7FFE75A
:102320003F480168012252041143016000681040D7
:1023300000900098FFE70C200290022003900020FC
:10234000049003200590012006900920C00602A9F0
:10235000FEF792F9FFE708B080BDC0461C100240AE
:10236000FFE7FEE780B584B0FFE72D480168012252
:10237000114301600068104003900398FFE70A20B2
:10238000002102900191019AFEF78CFB0298FEF762
:102390007DFB04B080BDC04680B58CB000200B90A2
:1023A0000A90099008900790FFE71D4801680122F4
:1023B0009205114301600068104006900698FFE7FF
:1023C000FFE71748016801225204114301600068C9
:1023D000104005900598FFE7FFE7114801680122CA
:1023E0009204114301600068104004900498FFE7D4
:1023F0000920C00642210022039002910192FEF7BB
:10240000AFFA0298079001210891019909910322DE
:102410000A9207A90398FEF72FF90CB080BDC046B9
:102420001410024080B58EB000200D900C900B90DF
:102430000A900990089007900690059004900390E8
:1024400002900190E049254A0A60486088603B227A
:10245000CA60086188610846FFF776F8002803D053
:10246000FFE7FDF759FFFFE7012000030A90D64878
:102470000AA9FFF70DF9002803D0FFE7FDF74CFF8D
:10248000FFE7D148FFF7E4FB002803D0FFE7FDF7A3
:1024900043FFFFE7002008900990CB4808A9FEF70A
:1024A000F7FF002803D0FFE7FDF736FFFFE76020C6
:1024B00001900020029003900590C34801A90C22CE
:1024C000FFF728FB002803D0FFE7FDF725FFFFE714
:1024D000BD48FFF7EBFA0EB080BDC04600040040D7
:1024E00080B50E480E490160E1214902416000219A
:1024F0008160C16001610C2242618161C161016240
:102500002021416201214903C163FFF795FE0028A4
:1025100003D0FFE7FDF700FFFFE780BD300100209B
:1025200000440040FFE7FEE770477047F0B589B010
:102530000E9C1D4616460F46089007A8017006A976
:102540000A7005A90B7004A90C706A49092252028D
:1025500000238B500B604B608B600799089A1170B9
:102560000699089A0478A1540599089A0478A21843
:10257000302411550499089A0078801860228154FB
:102580000293FFE70298072835DCFFE7089807A9C0
:102590000978085C02990722511AC84001210840B5
:1025A00003A90870087801280DD1FFE707A8007873
:1025B000182141430298081880004E4940185438A9
:1025C0002721016012E003A8007800280DD1FFE761
:1025D00007A800781821414302980818800045494F
:1025E0004018543812210160FFE7FFE7FFE7029827
:1025F000401C0290C6E700200190FFE701980728E1
:1026000037DCFFE7089807A9097808183021405CF3
:1026100001990722511AC8400121084003A90870F6
:10262000087801280DD1FFE707A800781821414359
:102630000198081880002F4940183438272101607C
:1026400012E003A8007800280DD1FFE707A8007862
:102650001821414301980818800026494018343851
:1026600012210160FFE7FFE7FFE70198401C01909E
:10267000C4E700200090FFE70098072837DCFFE759
:10268000089807A9097808186021405C009907227A
:10269000511AC8400121084003A908700878012890
:1026A0000DD1FFE707A800781821414300980818CA
:1026B00080001049401814382721016012E003A857
:1026C000007800280DD1FFE707A8007818214143C2
:1026D000009808188000074940181438122101603A
:1026E000FFE7FFE7FFE70098401C0090C4E709B050
:1026F000F0BDC046B401002080B584B002900298BD
:10270000401E000E002803D0FFE70120039013E0D5
:102710000298401E0A4908600020C143032201902C
:102720000846114600F0F0FE06480199016006488F
:10273000072202600391FFE7039804B080BDC04602
:1027400014E000E018E000E010E000E080B5FEF7E3
:1027500025F980BD80B592B006A830210190FDF723
:1027600045FD002005900490039002900121069100
:10277000079102220E920A040F928904109111907F
:102780000198FEF715FB002803D0FFE7FDF7C4FD15
:10279000FFE707200290022003900020049005909C
:1027A00002A80121FEF78EF9002803D0FFE7FDF70C
:1027B000B3FDFFE712B080BD7047000080B502484E
:1027C000FFF73EF880BDC046E800002083B00290CD
:1027D000019102980068009002983149884205D022
:1027E000FFE702982F4988420AD1FFE7009870213D
:1027F0008843009001984068009901430091FFE7E9
:1028000002982749884214D0FFE702982549884258
:102810000FD0FFE70298244988420AD0FFE70298C8
:10282000F749884205D0FFE70298F64988420BD164
:10283000FFE7009803210902884300900198C068CF
:10284000009901430091FFE7009880218843019996
:1028500049690843009000980299086001988068CF
:102860000299C86201980068029988620298E34957
:1028700088420AD0FFE70298E149884205D0FFE785
:102880000298E049884205D1FFE701980069029962
:102890000863FFE702980121416103B07047C04619
:1028A000002C0140000400400020004084B0039050
:1028B0000291019202981F21084001228240009259
:1028C0000098039A136A834313620198029A0A409C
:1028D000904003990A6A02430A6204B0704780B5C7
:1028E00082B001900198406A009001980099496A6D
:1028F00088420ED1FFE70098012101770198806995
:10290000002805D1FFE700983E2101224254FFE74D
:102910003FE001980099896A88420ED1FFE700984C
:102920000221017701988069002805D1FFE700980E
:102930003F2101224254FFE72AE001980099C96A29
:1029400088420ED1FFE70098042101770198806941
:10295000002805D1FFE70098402101224254FFE7FB
:1029600015E001980099096B88420ED1FFE70098A5
:102970000821017701988069002805D1FFE70098B8
:10298000412101224254FFE700E0FFE7FFE7FFE7B4
:10299000FFE70098FFF7B2F900980021017702B035
:1029A00080BD80B582B001900198406A0090019886
:1029B0000099496A884204D1FFE700980121017714
:1029C00021E001980099896A884204D1FFE70098C4
:1029D0000221017716E001980099C96A884204D162
:1029E000FFE70098042101770BE001980099096B3B
:1029F000884204D1FFE700980821017700E0FFE753
:102A0000FFE7FFE7FFE70098FFF78AF9009800214A
:102A1000017702B080BD80B582B001900198406A14
:102A2000009001980099496A884207D1FFE7009811
:102A30000121017700983E22815431E001980099EC
:102A4000896A884208D1FFE700980221017700983F
:102A50003F210122425422E001980099C96A88422C
:102A600008D1FFE700980421017700984021012256
:102A7000425413E001980099096B884208D1FFE79E
:102A8000009808210177009841210122425404E076
:102A900000983D2101224254FFE7FFE7FFE7FFE7EF
:102AA0000098FEF7C5FE00980021017702B080BDB6
:102AB00085B004900391029201930498806800907D
:102AC0000098FF2109028843009003980299019A17
:102AD00012021143084300990143009100980499A0
:102AE000886005B0704783B00290019102988068B9
:102AF0000090009870218843009001980099084345
:102B000007210843009000980299886003B070473D
:102B100085B0049003910498016A012291430162F7
:102B20000498006A019004984068009004988069B5
:102B300002900298702188430290029803218843F2
:102B400002900398006802990143029101980221C2
:102B5000884301900398806801990143019104988A
:102B6000D94988420AD0FFE70498D849884205D05D
:102B7000FFE70498D64988420ED1FFE70198082163
:102B8000884301900398C06801990143019101981D
:102B9000042188430190FFE70498CB4988420AD07A
:102BA000FFE70498C949884205D0FFE70498C8495F
:102BB000884214D1FFE7009801210A029043009057
:102BC00000984902884300900398406900990143A6
:102BD000009103988069009901430091FFE70098F4
:102BE00004994860029804998861039840680499A0
:102BF000486301980499086205B07047002C0140B1
:102C0000004401400048014085B0049003910498BD
:102C1000016A1022914301620498006A01900498AD
:102C20004068009004988069029002980721090387
:102C30008843029002980321090288430290039876
:102C40000068000202990143029101982021884303
:102C50000190039880680001019901430191049853
:102C60009949884212D0FFE704989849884204D1D4
:102C7000FFE70020002809D1FFE704989449884223
:102C800013D1FFE7012000280FD1FFE70198802131
:102C9000884301900398C0680001019901430191A4
:102CA0000198402188430190FFE7049886498842B3
:102CB0000AD0FFE704988549884205D0FFE70498C9
:102CC0008349884216D1FFE7009801218A02904388
:102CD00000900098C90288430090039840698000E2
:102CE0000099014300910398806980000099014395
:102CF0000091FFE700980499486002980499886160
:102D0000039840680499886301980499086205B0A3
:102D10007047C04685B0049003910498016A01226F
:102D20001302994301620498006A01900498406874
:102D300000900498C0690290029870218843029024
:102D40000298032188430290039800680299014386
:102D50000291019851028843019003988068000213
:102D600001990143019104985749884212D0FFE725
:102D700004985649884204D1FFE70020002809D171
:102D8000FFE704985249884214D1FFE70120002848
:102D900010D1FFE701980121CA02904301900398E6
:102DA000C0680002019A0243019201988902884397
:102DB0000190FFE70498444988420AD0FFE704984D
:102DC0004249884205D0FFE704984149884216D11C
:102DD000FFE7009801210A039043009000984903FF
:102DE00088430090039840690001009901430091D5
:102DF000039880690001009901430091FFE7009862
:102E00000499486002980499C8610398406804993D
:102E1000C86301980499086205B0704785B00490B2
:102E200003910498016A01221303994301620498F3
:102E3000006A01900498406800900498C06902906C
:102E4000029807210903884302900298032109028E
:102E5000884302900398006800020299014302919E
:102E600001985103884301900398806800030199F9
:102E7000014301910498144988420AD0FFE704985D
:102E80001249884205D0FFE70498114988420CD1C5
:102E9000FFE7009801218903884300900398406967
:102EA0008001009901430091FFE700980499486070
:102EB00002980499C86103984068049908640198CD
:102EC0000499086205B07047002C0140004401409D
:102ED0000048014085B00490039102920498006A72
:102EE00000900498016A012291430162049880696C
:102EF00001900198F0218843019002980001019906
:102F00000143019100980A21884300900398009999
:102F1000014300910198049988610098049908621E
:102F200005B0704785B00490039102920498016A3D
:102F30001022914301620498806901900498006A0C
:102F4000009001980F210903884301900298000323
:102F50000199014301910098A021884300900398B2
:102F6000000100990143009101980499886100983B
:102F70000499086205B0704781B000900098242140
:102F8000405CC00700280CD0FFE70098006840684C
:102F900001214904884300998A6A104309684860FE
:102FA000FFE700982421405C800700280CD5FFE74C
:102FB0000098006840680121090488430099CA6AA2
:102FC000104309684860FFE700982421405C4007EF
:102FD00000280CD5FFE700980068406801218904AB
:102FE000884300990A6B104309684860FFE700981E
:102FF0002421405C000700280CD5FFE700980068FA
:1030000040680121C903884300994A6B104309684D
:103010004860FFE700982421405CC00600280CD5DA
:10302000FFE7009800688068012109038843009940
:103030008A6B104309688860FFE700982421405C90
:10304000800600280CD5FFE7009800688068012101
:10305000490388430099CA6B104309688860FFE7F9
:1030600000982421405C400600281DD5FFE7009809
:1030700000684068012109058843009A136C1843D1
:10308000126850600098006C88420CD1FFE70098ED
:103090000068406803214905884300994A6C104341
:1030A00009684860FFE7FFE700982421405C0006BC
:1030B00000280CD5FFE70098006840680121C9048A
:1030C000884300998A6C104309684860FFE701B0A3
:1030D0007047000080B584B00290029880210022E1
:1030E0004250FDF757FC0190029800680068000705
:1030F000002811D5FFE70298019B1E49009101218C
:103100004905002200F05AF9002804D0FFE703A87F
:10311000032101702AE0FFE7029800680068400779
:10312000002811D5FFE70298019B12490091012167
:103130008905002200F042F9002804D0FFE703A827
:103140000321017012E0FFE70298202181670298B5
:10315000C167029800210166FFE7029874210022EE
:103160004254FFE703A800210170FFE703A800789D
:1031700004B080BDFFFFFF0180B58AB0099004A8AC
:103180000021017009988168026911434269114365
:10319000C0690143089109980068006882490840A5
:1031A0000899084309990968086009980068406807
:1031B0000321090388430999CA68104309684860D4
:1031C0000998806908900998006A08990143089154
:1031D0000998006880680B21090288430899084310
:1031E000099909688860FFE7099800686F49884273
:1031F00023D1FFE76F4800680321084003280290AD
:1032000016D80298784400794000874401090D05DA
:1032100006A8002101700FE006A8022101700BE052
:1032200006A80421017007E006A80821017003E048
:1032300006A810210170FFE70EE0099800685C49BC
:10324000884204D1FFE706A80021017003E006A828
:1032500010210170FFE7FFE7FFE70998C06901212E
:10326000C903884252D1FFE706A8007808280190D8
:1032700018D8019878440079400087440413081353
:103280000B1313130F00FDF705FD039010E04A48E0
:1032900003900DE0FDF70EFD039009E00120C0034F
:1032A000039005E00020039004A801210170FFE7CE
:1032B0000398002829D0FFE703984000099949683E
:1032C0004A088018FCF79DFF80B2059005981028E9
:1032D00016D3FFE705A84088002811D1FFE705981D
:1032E0000F21884307A9088005980E221040400846
:1032F000079A02430A80088809990968C86003E0B0
:1033000004A801210170FFE7FFE744E006A8007868
:103310000828009018D80098784400794000874425
:10332000041308130B1313130F00FDF7B3FC0390E2
:1033300010E0214803900DE0FDF7BCFC039009E08C
:103340000120C003039005E00020039004A80121A0
:103350000170FFE7039800281CD0FFE70398099944
:1033600049684A088018FCF74CFF80B20590059820
:1033700010280AD3FFE705A84088002805D1FFE7F9
:10338000059809990968C86003E004A80121017043
:10339000FFE7FFE7FFE7099800214166099881668A
:1033A00004A800780AB080BDF369FFEF003801403F
:1033B000004400403010024000127A00B0B586B0E0
:1033C0000A9C15460490039102A802700193FFE73E
:1033D00004980068C06903990840401A4142484176
:1033E00002A90978884264D1FFE70A98401C0028A6
:1033F0005ED0FFE7FDF7CEFA0199401A0A9988429C
:1034000004D8FFE70A9800281CD1FFE70498006859
:1034100001680D225201914301600498006881689F
:103420000122914381600498202181670498C1673B
:10343000FFE70498742100224254FFE705A8032106
:1034400001703AE0049800680068400700282ED513
:10345000FFE704980068C0690121C9020840C00A5A
:10346000012823D1FFE7049800680121CA02026203
:103470000498006802680D235B019A430260049877
:10348000006882688A4382600498202181670498DA
:10349000C167049880228150FFE7049874210022BC
:1034A0004254FFE705A80321017006E0FFE7FFE7AC
:1034B0008EE705A800210170FFE705A8007806B097
:1034C000B0BD000080B55F48024A0C21024BFEF7F8
:1034D0002BFC80BDB40100208404000081B00146B3
:1034E0006A461070107840B2002809D4FFE7684699
:1034F00000781F2108400121814002480160FFE758
:1035000001B0704700E100E070B582B0024601AB47
:1035100018700091187840B2002817D4FFE701A86E
:10352000017849B20322D2431140184BC9580078A0
:1035300040B28407E40EFF25A540A943009DAD01DC
:10354000EDB2A54029431040C1501AE001A801780E
:103550000F22114008390323DB4319400A4C095953
:10356000007840B28507ED0EFF26AE40B143009EC5
:10357000B601F6B2AE403143104008381840015150
:10358000FFE702B070BDC0461CED00E000E400E0C3
:1035900080B58AB000200990FDF70CFA0590FFF77E
:1035A000D9F8FEF7F9FEFEF7DDFEFEF73BFFFEF76A
:1035B00097FF2448FEF74CFB08A920220A70FFE77A
:1035C00001200790FFE7079820282DDCFFE7002067
:1035D0000690FFE706980799884210DAFFE706A8E9
:1035E000017800200090184A04901046049A049B29
:1035F000FEF79CFFFFE70698401C0690EAE707A845
:103600000178FF200090104A03901046039A039B14
:10361000FEF78CFFFFF756FF3C20FDF70DF8FFE7A4
:103620000798401C0790CEE7002000900649202212
:10363000029008461146029A029BFEF777FFFFF7B9
:1036400041FFBDE7E80000201000002002E008C8AC
:10365000121F08C1002AFAD170477047002001E00C
:1036600001C1121F002AFBD17047000000000000BA
:10367000000001020304060708090000000001021F
:1036800003040000A836000800000020100000001D
:103690004C360008B836000810000020B8170000AB
:1036A0005C3600080000000000127A0001000000F3
:0836B00004000000000000000E
:04000005080000C12E
:00000001FF
