:020000040800F2
:1000000098070020D50000081D1A000805180008F0
:1000100000000000000000000000000000000000E0
:100020000000000000000000000000004D1F00085C
:1000300000000000000000007D1D00084F1F0008A8
:100040000501000800000000050100080501000886
:100050000501000805010008050100080501000868
:100060000000000005010008F1010008050100087A
:100070000501000805010008050100080000000056
:10008000E51F000800000000000000000501000856
:100090000000000005010008050100080501000836
:1000A0000000000005010008000000000501000834
:1000B0000501000800000000000000000501000824
:1000C0000348854600F064F80048004735250008DD
:1000D000980700200C4880F308880C480168090E36
:1000E0000B4A914205D10B480B4901600B480C4962
:1000F00001600C4880470C480047FEE7FEE7FEE73A
:10010000FEE7FEE7FEE7000098070020040000007D
:100110001F00000018100240010000000000014014
:1001200000000000E11F0008C1000008D2B201E099
:100130000270401C491EFBD270470022F6E710B542
:1001400013460A4604461946FFF7F0FF204610BD45
:1001500070B50446002903D000202022012310E0BE
:10016000002801D00020C043C046C0460DE025460F
:10017000D5408D4205D30D469540641B1D469540E4
:1001800040191546521E002DF1DC214670BD0000BD
:10019000064C0125064E05E0E36807CC2B430C3CDA
:1001A00098471034B442F7D3FFF78EFF502C000865
:1001B000702C000830B58C180278401C13071B0FF8
:1001C00001D10378401C120906D10278401C03E0DB
:1001D00005780D70401C491C5B1EF9D101E00B70C5
:1001E000491C521EFBD1A142E6D3002030BD0000C5
:1001F00080B5024800F02AF880BDC046D00100203A
:10020000EFF3108072B6FEE7B0B52121415C022900
:1002100017D101462031026813680E24A3431360EE
:1002200013680125AB431360C26B036C2C469C40E2
:10023000546000240C704D70416B002904D0884735
:1002400002E00421816301242046B0BDF0B581B0F5
:10025000C16B046C00910D680268166873070FD5B6
:1002600004210F46A7403B462B4009D013689B064C
:1002700002D413688B43136000994F60C16A2BE06E
:1002800003462033B10713D50227A740394629403A
:100290000ED01168890605D411680A24A1431160A3
:1002A000012159700021197000994F60816A13E093
:1002B000310714D50821A140294010D011680E251E
:1002C000A943116001210A46A240009C626081633B
:1002D00000221A705970016B002900D0884701B0C4
:1002E000F0BD0000F0B585B000282DD004460646CC
:1002F000203602207070A2CC236860680190A0684C
:100300000290E0680390206904900868104A024057
:100310002A433A431A43019802430298024303983E
:100320000243049802430A600025E56209482063FD
:10033000357009480C3C08181421FFF709FF8000AC
:1003400020640120707000E00125284605B0F0BD52
:100350000FC0FFFF00000240F8FFFDBFB0B504462C
:1003600000F0EAF80546601C02D0F4480078041951
:1003700000F0E2F8401BA042FAD3B0BDF0B58BB05C
:10038000019009910A68002A00D1BEE060480199F5
:10039000814201D0052000E00320009001240026C6
:1003A000029435460896611E0298079188400240E3
:1003B000059200D19CE0069609994B68122B039593
:1003C00066D801219940544A114261D00321A940C5
:1003D000019EB7688F43099AD268AA403A43B26037
:1003E0001A09079FBA407768874317437760C84365
:1003F00008994D00F1680140099A92680495AA4055
:100400000A43F26010211943122911D11C21069AC6
:1004100011400F228A40079BDB089B00F3181F6ADC
:100420009743099A12698A403A431A6209994B68BC
:1004300032680240032118460840049DA84010433A
:100440003060D800069E039D52D5C84B1A68012023
:1004500002431A601A6802400A920C2333400F22AA
:100460009A40079E8E430A992C49775897430797DD
:1004700076180921C906019A8A420ED028498A4273
:100480000CD0284882420098079908D1022006E043
:100490000320A840C043019EACE700200799984084
:1004A000084330601B48016809984068C20302D5C0
:1004B000059B194301E0059B9943069E154A11606F
:1004C0005168820301D5194300E09943114A5160F4
:1004D0009168C20201D5194300E099430D4A916029
:1004E000D168800201D5194300E099430948C160F1
:1004F000099802681046E040361D641CAD1C08993E
:10050000491C0891002800D04DE70BB0F0BDC04653
:10051000000C0048000401400600060008000140ED
:100520000004004800080048002A01D0182200E01A
:100530002822815070470000694800687047C04613
:10054000B0B502464120135C0220202B19D113467E
:1005500040331C78012C14D0242058701068026895
:100560000124A243026022030568954305600268E6
:100570000A430260016821430160002018702021B5
:100580005970B0BDB0B502464120135C0220202B4B
:1005900019D1134640331C78012C14D024205870F4
:1005A000106802680124A24302600F22120205684B
:1005B000954309022943016001682143016000203D
:1005C000187020215970B0BDF0B581B0002822D03C
:1005D0000446054640356878002804D1002028707C
:1005E000204600F043F8242068702068026801214A
:1005F0008A4302600F221206636893430361836893
:10060000184A13408360A368E668012E05D1CE0323
:100610003343836009E0012022E02127BF023B43EE
:100620008360022E01D1CB02436043680E4E1E430D
:100630004660C3681340C360226963691343A269BB
:1006400012021A43C260E269236A1343036002681C
:100650000A43026000206064202169702063A87052
:1006600001B0F0BDFF7FFFFF00800002B0B586B093
:10067000044601A81421FFF760FD20681249884252
:100680001FD1124C2068012503956904084320609E
:10069000206808400090042005901220029003205A
:1006A00004904002019000980920C00601A9FFF7BC
:1006B00065FE6805A1680143A160A1680140009141
:1006C000009806B0B0BDC04600540040141002406F
:1006D0001A48007802490A68101808607047C04636
:1006E0009003002010B5B948016810220A43026047
:1006F0000024204600F004F800F024F8204610BD45
:10070000B0B504467D20C0000C490978FFF720FDF4
:100710000146B6480068FFF71BFD00F0FDFC01250F
:10072000032C09D8002807D10025E84321462A4692
:1007300000F02AF8024804602846B0BDC401002039
:10074000C801002082B009480168012211430160FC
:100750000168114001910199110742680A43426002
:10076000406808400090009802B07047181002409E
:10077000002805D41F210840012181400148016063
:100780007047C04600E100E0002805D4032203467C
:1007900093430C4A9A1806E00F220240083A0323BA
:1007A0009A43074BD2188007C00E8901C9B2814015
:1007B000FF23834010689843084310607047C04689
:1007C0001CED00E000E400E0F0B585B00446807860
:1007D000C0073C4B38D00120029001071868084040
:1007E000039006D118680843186018680840049000
:1007F00004980191344E3068C00540D50325280285
:10080000304B5968014012D06268024091420ED0CC
:100810000298000459685A6802435A605A68824331
:100820005A600846294A10405860C80739D15868AC
:10083000264908406168014359600398002803D1A4
:1008400018680199884318602068C10705D0596964
:1008500003229143A2680A435A61810605D559696A
:1008600010229143E2680A435A610025800325D58E
:100870005869802188432169014359611EE002982B
:100880000702306838433060FFF756FE054630688F
:100890003842B3D1FFF750FE401B6428F7D9032537
:1008A0000CE0FFF749FE0646494F064B58688007A3
:1008B000BDD4FFF741FE801BB842F6D9284605B0EB
:1008C000F0BDC0461C10024000700040FFFCFFFF5E
:1008D000F0B581B000284CD004463C4A1368012092
:1008E00003408B4208D213680126B3430B431360C5
:1008F000126832408A4266D1009121688A070ED57B
:100900004A0705D5072212024C4D2B6813432B6072
:100910004A4D2A68F0239A43A36813432B60C90702
:1009200029D12A49086801263040009A904205D909
:100930000868B04308600868C00744D120784007C1
:1009400007D5072000023D4A11688143E06808434B
:10095000106000F04FF8394909680906090F1D4A6F
:10096000515CC8402149086000263046FFF7C8FEA8
:1009700029E0012627E06168304A121F022904D0CD
:10098000012905D11268920304E01268920101E086
:1009900012689207064616D5284A10680326B04307
:1009A00008431060FFF7C8FD0746094D234800685B
:1009B0000C210140606880008142B2D0FFF7BCFD8D
:1009C000C01BA842F2D9304601B0F0BD0020024061
:1009D0008813000046260008044800681749096883
:1009E0004905490F024A515CC8407047C0010020C8
:1009F0005626000810B511490A680C231340104808
:100A0000042B16D0082B16D1896A0F230B400DA199
:100A1000C95C93021B0F0FA4E45C0323DB031340A8
:100A200001221204934200D00E48FFF791FB444389
:100A300002E0044600E00B4C204610BD04100240CA
:100A40000024F4000102030405060708090A0B0C40
:100A50000D0E0F1002030405060708090A0B0C0D02
:100A60000E0F101000127A00F0B587B00446012076
:100A7000002C00D1A2E104902078C007F24E05942A
:100A800020D12078800774D570680007800F0CD0C3
:100A900070680C21014008292CD10320C003716823
:100AA00001400120C003814224D130688007059AAB
:100AB00003D5D068012800D07FE13068F821884351
:100AC000116953E071680C20014004290BD0716852
:100AD0000140082922D10320C00371680140012090
:100AE000000481421AD130688003CAD560680028AA
:100AF000C7D162E13068059CE168002922D001215C
:100B000008433060FFF718FD05463068800729D498
:100B1000FFF712FD401B0228F7D922E1616801208E
:100B20004704002900D1F1E0052900D105E10129A0
:100B300000D106E1010432688A43326081043068E2
:100B4000884301E1012188433060FFF7F5FC054649
:100B5000306880070DD5FFF7EFFC411B0320022909
:100B6000F6D92BE13068F82188432169C900014397
:100B70003160059C2078000727D42078400700D4F6
:100B800088E0012003900107F0690840029006D137
:100B9000F0690843F061F0690840069006980191F9
:100BA000AA4F3868C00532D505988068A84F00283C
:100BB0003FD0052852D0012854D0306A0399884389
:100BC0003062306A042188434FE0706AE16900298D
:100BD0000ED0012108437062FFF7AEFC0546706A33
:100BE0008007CAD4FFF7A8FC401B0228F7D9B8E059
:100BF000012188437062FFF79FFC0546706A8007F9
:100C0000BBD5FFF799FC401B0228F7D9A9E0039850
:100C10000402386820433860FFF78EFC05463868C8
:100C20002042C1D1FFF788FC411B03206429F6D97B
:100C3000C4E0306A039988433062306A04218843F3
:100C40003062FFF779FC0546306A80071AD5FFF756
:100C500073FC411B0320B942F6D9AFE0306A04218E
:100C600001433162306A039908433062FFF764FC44
:100C70000546306A800705D4FFF75EFC401BB8428A
:100C8000F7D96EE002980028059C03D1F06901991C
:100C90008843F0612078C0066DD5059A5069411DE2
:100CA00016D001281DD1706B042101437163706B54
:100CB000012101437163FFF73FFC0546706B80071C
:100CC00051D4FFF739FC411B03200229F6D975E006
:100CD000706B042188437063706BF82188439169BD
:100CE00046E0706B042101437163706B01218843FE
:100CF0007063FFF721FC0546706B80073BD5FFF75B
:100D00001BFC411B03200229F6D957E0010432687D
:100D10008A4332608004316881433160FFF70CFC04
:100D20000546059C3068384200D1AAE6FFF704FC6E
:100D3000411B03206429F5D940E0810432680A434D
:100D400032600104306808433060FFF7F5FB054668
:100D50003068384200D094E6FFF7EEFB401B642871
:100D6000F6D903202AE0706BF82188430599896938
:100D7000C900014371630598046A002C1BD0706898
:100D80000C21014008291BD1012C16D00320C203DD
:100D900070680240F16A059C636A9A420DD10F2285
:100DA0001140E36A9942049B4BD191040840A16A27
:100DB0008842184602D1002000E0049807B0F0BD38
:100DC0000120020631680492914331604706FFF723
:100DD000B3FB0546022C0AD1049C3068384210D07F
:100DE000FFF7AAFB411B03200229F6D9E6E730688A
:100DF0003842E0D0FFF7A0FB411B03200229F6D9BF
:100E0000DCE7F06A0F218843059AD16A0143F16259
:100E10007B20C00371688143906A0843516A014393
:100E20007160306820433060FFF786FB044630680D
:100E30003842C0D1FFF780FB011B03200229F6D9FD
:100E4000BCE71846BAE7C0460010024000700040F8
:100E500088130000F0B585B000280CD00446054684
:100E60005C3541208600606A002806D000202061A1
:100E70002046143006E0012064E06068B04203D0F0
:100E800020461C30002101600027A76268780028F6
:100E900004D100202870204600F056F80220049566
:100EA00001906870206801684022914303900160BE
:100EB000E168984A012591422A4600D33A46120336
:100EC000ED020D430F2738020290854201D0002524
:100ED000A5626568A768354021239B023B405B19EA
:100EE0002569019805401D43606901231840284386
:100EF000FC36A7693E400643E06938250540354386
:100F0000206A802606402E435803A56A05403543D3
:100F1000039E3560380C04250540029801400A43C1
:100F20002A43606A102101401143606B082202408D
:100F30000A437260D802F1698143F16100202066A2
:100F400004994B7005B0F0BD10B586B0044601A8F9
:100F50001421FFF7F2F82068124988421FD10120BE
:100F60000103114A53680B43536053680B400093CD
:100F7000009940041168014311601168014000911B
:100F80000020059003210491039002200290B020DC
:100F900001900920C006009901A9FFF7EFF906B0FA
:100FA00010BDC0460030014014100240F0B587B0BB
:100FB00004465C20205C012801D10220A7E01546F0
:100FC000059104932746443701263E76FFF7B4FA8D
:100FD0000390787E01285ED105990029304600D122
:100FE00092E0002D304600D18EE002960320009062
:100FF000787600202066E587A587A1632064388085
:10100000E06420650190788020680121CA03A3680C
:10101000934207D1026840239A4302608903026821
:101020000A43026001684906049E03D40168402215
:101030000A43026061684A424A416B1E5942594163
:101040001143E268334B9A4227D30029039D07D00E
:10105000059A1188C160911CA163E18F491EE18747
:10106000E18F002938D08168890707D4FFF764FA37
:10107000711C0BD0401BB04208D328E0A16B0A883A
:10108000C260881CA063E08F401EE087E08F0028CC
:1010900022D02068E7E7022036E00029039D08D02F
:1010A000059909780173A06B401CA063E08F401E76
:1010B000E087E08F00280FD020688168890709D475
:1010C000FFF73AFA711CF4D0401BB042F1D3029EF4
:1010D000009819E0A16BE4E7204631462A4600F06B
:1010E0004EFE002801D020202066A0680028029E25
:1010F00007D1019806902068C16806918068069023
:101100000698206E411E8841002139767E7607B010
:10111000F0BDC04601070000401E010E01D00120B5
:1011200070470749074A5060074803680B4003218E
:1011300089075918016000209060072111607047ED
:10114000FFFFFF0010E000E020ED00E07047704777
:10115000B0B53C22825C012A01D10220B0BD02461A
:101160003C320223537001231370006844687025D9
:10117000AC430D68254384684560074DA84202D002
:10118000EA4DA84204D18025AC43496821438160DF
:10119000002010705370B0BD002C0140B0B5002885
:1011A0001DD0044605463C356878002804D100204F
:1011B0002870204600F016F80220687001CC214605
:1011C00000F018FF0120A872A870E87028716871FB
:1011D000A871E8712872687268700020B0BD0120A3
:1011E000B0BD0000F0B583B004460068CF49884226
:1011F00032D11A48026802231A430260184D0022B5
:101200008020019010260327380300900120C1029E
:101210004002144F2F606E60AA60019EEE602E4661
:10122000103607C60098E8610C4800681840029024
:1012300002982846FFF756F8002801D0FEF7E0FF95
:10124000256225636C621024002120460A46FFF7C0
:101250009BFA2046FFF78CFA03B0F0BD1C10024049
:10126000D00100203000024070B53C22825C012A8F
:1012700001D1022070BD02463C320223537001238B
:10128000137000688468444D2C4084600C683F2CC7
:1012900016DD5F2C1BDD602C3CD05E03B44252D0C7
:1012A000702C75D1773584682C404D688E68C9687C
:1012B0002E430902314321438160846877214FE046
:1012C0001F2C1DDC002C1FD0102C1DD060E0402CEA
:1012D00048D0502C5CD1046A056A9D43056285693B
:1012E000F026B543CE6836012E4386610A25AC430D
:1012F000496821430162846857212143202445E045
:10130000202C01D0302C43D181687025A9430C4397
:10131000072125E01024E443056A254005620F25D6
:101320002D038669AE43CD682D033543066A85617A
:10133000A025AE43496809013143016285686721F0
:101340002943214023E0773584682C404D688E681E
:10135000C9682E4309023143214381609C0381689F
:10136000214314E0046A056A9D4305628569F026FD
:10137000B543CE6836012E4386610A25AC434968E1
:10138000214301628468472121433024A1438160C5
:1013900000201070537070BD8800FFFF7047B0B51B
:1013A00004468020C54320680169890717D5C168B4
:1013B000890714D529467E31016101212177806991
:1013C000800703D02046FFF7E9FF05E0204600F044
:1013D000B1F8204600F032F900202077206801693A
:1013E000490718D5C168490715D529467C310161DF
:1013F0000221217780698005800F03D02046FFF706
:10140000CDFF05E0204600F095F8204600F016F9E3
:101410000020207720680169090717D5C1680907EE
:1014200014D529467831016104212177C0698007EC
:1014300003D02046FFF7B2FF05E0204600F07AF81F
:10144000204600F0FBF80020207720680169C906DB
:1014500018D5C168C90615D5294670310161082122
:101460002177C0698005800F03D02046FFF796FFE3
:1014700005E0204600F05EF8204600F0DFF800208E
:10148000207720680169C90709D0C168C90706D05B
:1014900029467F310161204600F052F92068016938
:1014A000090607D5C168090604D505612046FFF77E
:1014B0004DFE20680169490609D5C168490606D56F
:1014C000294640310161204600F03BF9206801695E
:1014D000890607D5C168890604D5603505612046AF
:1014E000FFF735FEB0BD000010B586B0044601A878
:1014F0001421FEF722FE20680C49884214D1E648E8
:1015000001680122059292041143016000681040B5
:101510000090002004900390022002900190009817
:10152000034801A9FEF72AFF06B010BD00040040E1
:101530000004004870470000F0B581B005463C202B
:10154000285C012801D1022052E02E463C360127BA
:1015500037700220C241032A48D80C467A441279D7
:1015600052009744011021302868214600F084FD84
:101570002868816908220A438261816904229143B3
:10158000816121690EE02868214600F0B1FDF90271
:10159000286882690A438261B90282698A4382614A
:1015A0002169090218301EE02868214600F0DAFDA2
:1015B0002868C16908220A43C261C16904229143B3
:1015C000C16121690EE02868214600F007FEF9029A
:1015D0002868C2690A43C261B902C2698A43C2610A
:1015E000216909021C3002680A4302600020307041
:1015F00001B0F0BDB0B500281DD0044605463C350D
:101600006878002804D100202870204600F015F8E2
:101610000220687001CC214600F0ECFC0120A87289
:10162000A870E87028716871A871E87128726872F2
:1016300068700020B0BD0120B0BD704780B5E7499B
:10164000884200D080BDE5480C2100F001F880BD43
:1016500070B50D46044602212846C84103282BD800
:101660007844007940008744010A131C012040029D
:101670002168CA688243CA602046243019E00120EC
:1016800080022168CA688243CA602046283010E080
:101690000120C0022168CA688243CA6020462C30FB
:1016A00007E0012000032168CA688243CA6020461F
:1016B00030300068FEF7A8FD1F21294001200246B6
:1016C0008A4021680B6A93430B620A6A0A62174ACE
:1016D000174B994205D0174B994202D0164B9942AD
:1016E0000AD10B6A134207D10B6A144E334203D15D
:1016F000C3034E6C9E434E640B6A134206D10A6AC2
:101700000E4B1A4202D10A6882430A603E34082D09
:1017100005D0042D05D0002D05D1207004E0A07067
:1017200002E0607000E0E070002070BD1111000068
:10173000002C0140004801400044014044040000E6
:1017400070477047B0B500282DD00446806F002840
:1017500005D1742000212154204600F027F82420D0
:10176000A067206801680125A9430160204600F0B8
:10177000FBFD012818D0606A002802D0204600F046
:1017800061FD0120C102226853688B435360916858
:10179000082399439160116801431160204600F0CD
:1017A000ADFD054600E001252846B0BD10B586B068
:1017B000044601A81421FEF7C0FC2068964988421F
:1017C0001ED135488168012205925204114381607F
:1017D000816811400091009901681143016000681F
:1017E00010400090032004900020039002200290FB
:1017F0000C2001900920C006009901A9FEF7BEFD4A
:1018000006B010BDFEE7000010B582B022480168A6
:1018100001221143016000681040019001980A24E0
:10182000002120460A46FEF7AFFF2046FEF7A0FF44
:1018300002B010BDF0B587B0002406940127B905A9
:10184000154802680A43026002680A400192019941
:10185000790402680A43026002680A400192019911
:10186000B90402680A4302600068084001900198C8
:101870000920C5064226284631462246FEF754FE78
:101880000320059004940397029602A92846FEF7C8
:1018900075FD07B0F0BDC0461410024010B5134CE2
:1018A00001200021124A134B23606260A160E060B6
:1018B000204610301421FEF740FC2046FEF784FE3F
:1018C000002801D0FEF79CFC08480021FEF738FEF6
:1018D000002801D0FEF794FC04480021FEF752FED8
:1018E000002801D0FEF78CFC10BDC0461402002079
:1018F0000E0900200054004070B510480822002155
:101900000723016241628162C36201634263202254
:101910000B4C0125AD041B024126B60050C00160EE
:1019200043608160C160056142610838FFF792FA47
:10193000002801D0FEF764FC70BDC04660020020A4
:101940000030014010B58EB000240D940C940B941F
:101950000A940994089401A81C21FEF7EEFB1F4885
:1019600084613B211E4A14C00460416084600838D1
:10197000FFF714FC002801D0FEF742FC0120000311
:101980000A9016480AA9FFF76FFC002801D0FEF75D
:1019900037FC1248FFF72EFE002801D0FEF730FC7E
:1019A000099408940D4808A9FFF7D2FB002801D03C
:1019B000FEF726FC059403940294602001900748EA
:1019C00001A90C22FFF7B8FD002801D0FEF718FC92
:1019D0000248FFF789FD0EB010BDC046C4020020CA
:1019E0000004004010B50B4800210C220A4B016294
:1019F0004162E124640218C0016041608160C260FC
:101A0000016141610838FFF79DFE002801D0FEF713
:101A1000F7FB10BD0C03002000440040FEE770B54A
:101A20000024254628465038C0B2214600F088F9E7
:101A30002046214600F084F91020214600F080F96C
:101A400026460020012100F07BF9701C46B2002ED2
:101A5000F7D5681CE9B207290546E3D370BDF0B598
:101A600081B00920C6064025012200923046294651
:101A7000FEF75AFD64273846FEF770FC0024304616
:101A800029462246FEF750FD3846FEF767FC3046F1
:101A90002946009AFEF748FDAE20214600F050F995
:101AA0002046214600F04CF91020214600F048F96C
:101AB0002846214600F044F98120214600F040F9F3
:101AC000CF20214600F03CF9A120214600F038F952
:101AD000C820214600F034F9A6263046214600F001
:101AE0002FF9A820214600F02BF93F20214600F0D5
:101AF00027F9D320214600F023F92046214600F0A3
:101B00001FF9D520214600F01BF98020214600F066
:101B100017F9D920214600F013F9F120214600F0F1
:101B20000FF9DA20214600F00BF91220214600F0CF
:101B300007F9DB20214600F003F92846214600F092
:101B4000FFF82020214600F0FBF80220214600F09B
:101B5000F7F88D20214600F0F3F81420214600F01C
:101B6000EFF8A420214600F0EBF83046214600F0C3
:101B7000E7F8AF252846214600F0E2F8284621463E
:101B800000F0DEF8FFF74BFF2046214600F002F898
:101B900001B0F0BDB0B504465039C8B200252946A1
:101BA00000F0CEF820091030294600F0C9F80E20C8
:101BB0002040401C294600F0C3F8B0BDF0B581B00C
:101BC00016460D460446FFF7E5FFB0010C490E1816
:101BD0000027F05D012100F0B3F87F1C102FF8D131
:101BE000681CC1B22046FFF7D5FF2024305D0121DB
:101BF00000F0A6F8641C302CF8D101B0F0BDC0464E
:101C000000000020F0B581B016460C4641B2002716
:101C100000293A4600D40246002900D5A41CE1B2AE
:101C200000921046FFF7B6FF203EF0B206010E48C4
:101C30008519E85D012100F083F87F1C082FF8D199
:101C4000601CC1B20098FFF7A5FF082006430648B4
:101C500084190025605D012100F072F86D1C082DCB
:101C6000F8D101B0F0BDC0465E260008F0B585B0E1
:101C700002AC07C4002B3FD01C460A9840080190D4
:101C8000581E0090002635463746F84300190106D5
:101C900006D001210A225143401E0206FAD100E07B
:101CA00001210498FEF754FA0A21FEF751FA002D9B
:101CB00005D10098B04202DD002911D00125302065
:101CC0000143CAB230460199484302994018C0B254
:101CD0000399FFF797FF7F1C761CA642D5D10BE036
:101CE00030460199484302994018C0B22022039916
:101CF000FFF788FF0025EEE705B0F0BDF0B581B035
:101D000000921278002A18D00D4606460024274675
:101D1000F0B2E9B2D2B2FFF775FF0836F1B2782916
:101D2000204600D83046782900D9AD1C7F1CF9B276
:101D3000009A525C002A0646EAD101B0F0BD0000CC
:101D4000F0B581B00A466C462070481E82410920D9
:101D5000C506022628463146FEF7E6FB064801275F
:101D6000FF2321463A46FFF721F9284631463A46F5
:101D7000FEF7DAFB01B0F0BD600200207047F0B55D
:101D800081B016460F4605460324E1023A46334623
:101D900000F01CF800280FD128463946324600F0E2
:101DA0007BF8002808D10320410228463A463346F2
:101DB00000F00CF8002806D0286E20210143296687
:101DC000204601B0F0BD0024FAE70000F0B585B070
:101DD0001C4615460E460746FEF7AEFB201A039535
:101DE0004419FEF7A9FB019057480068232141439D
:101DF000080D0294604304903868816800243142E1
:101E00001DD03D4639465C310091032779028E4250
:101E100000D1017B0399491C0ED0FEF78DFB01997F
:101E2000401A029988420CD204980499491E0491E0
:101E3000002800D10290286881683142E5D1274608
:101E400026E02B4628684168E02291434160412109
:101E500089006A688A420CD199680122D3039942A9
:101E60002B4602D09202914203D101684022914355
:101E7000016001214A039B6A934205D103689343A1
:101E800003600368134303600020009A10705170D0
:101E9000384605B0F0BDC046F0B583B016460D46D5
:101EA0000446FEF749FB301A4719FEF745FB064684
:101EB000254800684001000D784302902068816841
:101EC00000220192090614D521465C310091691C5B
:101ED0000CD0FEF731FB801BB8420CD2029802995D
:101EE000491E0291002800D1074620688168090632
:101EF000EDD4019825E020684168E02291434160DB
:101F00004121890062688A420BD1A1680122D30372
:101F1000994202D09202914203D10168402291433A
:101F2000016001214A03A36A934205D103689343E8
:101F300003600368134303600020009A107051701F
:101F4000032003B0F0BDC046C0010020704780B53B
:101F5000FEF7BEFB80BD70B596B00AAC20460830D7
:101F60001821FEF7EAF800250995089507950695CA
:101F700001A81421FEF7E1F81595012081041491C0
:101F8000010413910226129610210E910D900B90D0
:101F900003200A902046FEF767FD002803D0EFF3E8
:101FA000108072B6FEE709950895079607200690FF
:101FB00006A80121FEF78CFC002803D0EFF3108067
:101FC00072B6FEE704952020019001A8FEF7FCFB05
:101FD000002803D0EFF3108072B6FEE716B070BD94
:101FE0007047000080B50248FFF7D9F980BDC046B0
:101FF000C402002010B504688F4A904202D01B4BE7
:10200000984204D170239C434B68234300E023464D
:10201000174CA04206DD90420AD0884CA04207D05F
:10202000874C03E0114CA04202D0124CA0421AD1BE
:1020300003242402A343CC681C4380239C434B69A4
:10204000234303608B68C3620B688362904205D0B0
:102050007A4A904202D07A4A904201D109690163DA
:102060000121416110BD1C46E7E7C0460004004065
:10207000FF2B014000200040F0B581B0026A01232F
:102080009A430262026A02239A438E6816434468A6
:102090000A6800928369684FB84205D0674DA8422C
:1020A00002D0674DA84206D10C25AE43CD6804226C
:1020B0009543354300E03546B84205D05F4A90422B
:1020C00002D05F4A904207D10322120294434E6924
:1020D0008A692643164300E02646466073229343EE
:1020E000009A1343836149684163056201B0F0BD02
:1020F000F0B581B0026A10239A430262026A20237B
:102100009A438B681E01164344680A6800928269EC
:10211000494FB84201D0354606E0C025AE43CD68F0
:102120002D0140239D433543B84205D0434B98428F
:1021300002D0434B984208D103239B029C434B6936
:102140008E699B002343B4001C43446073231B022D
:102150009A43009B1B0213438361496881630562B4
:1021600001B0F0BDF0B581B001221302046A9C43B6
:1021700004625202036A93438A6816021E4344684B
:102180000A680092C3692C4FB84201D0354607E077
:102190000325AD02AE43CD682A020F4D15403543ED
:1021A000B84205D0254A904202D0254A904208D133
:1021B0000322120394434A698E69120122433401B7
:1021C0001443446073229343009A1343C3614968E4
:1021D000C163056201B0F0BD00FBFFFFF0B581B047
:1021E00001221303046A9C430462036A44688D68F5
:1021F00000950E68C569104FB84205D00F4FB84220
:1022000002D00F4FB84205D19703BC434F69BF01BD
:10221000274300E02746476073242402A543340285
:102220002C43C4614968016451038B43009909033D
:102230001943016201B0F0BD002C0140004801408B
:1022400000440140B0B5416ACA0707D001225204D8
:1022500003685C689443826A22435A608A0707D500
:102260000122120403685C689443C26A22435A60E4
:102270004A0707D50122920403685C689443026B05
:1022800022435A600A0707D50122D20303685C681B
:102290009443426B22435A60CA0607D501221203B7
:1022A00003689C689443826B22439A608A0607D530
:1022B0000122520303689C689443C26B22439A60D4
:1022C0004A0610D501221305026854689C43056C28
:1022D0002C4354609D4206D103235B0554689C4304
:1022E000436C23435360090607D50121C9040268E2
:1022F00053688B43806C18435060B0BD70B582B09A
:102300000546802000242C50FEF716F90646286862
:10231000016809070BD513480090012041050022F0
:102320002846334600F0AEF800280ED12868006831
:1023300040070CD50B48009001208105002228465B
:10234000334600F09FF8002801D0032406E0284619
:1023500074302021A967E96704702C66204602B01A
:1023600070BDC046FFFFFF01B0B5044600680168BC
:102370003A4A0A40A16823690B4365691D43E16934
:102380000D43154305600322120343689343E2683B
:102390001A434260A269236A13430B221202856822
:1023A00095431D4385602E4A904209D02D4A9042A4
:1023B00008D12D4800688007000F2CA2135802E0B6
:1023C000002300E010230125EA032C4891420DD19F
:1023D000082B3DD87B441B795B009F4404391B3993
:1023E000153939391A00FEF7F7FA0FE0082B2FD804
:1023F0007B441B795B009F44042B202B1A2B2B2B37
:102400001F00FEF7E9FA14E0FEF7F4FA002801D104
:102410001DE01046400061684A081018FDF798FE5C
:102420001749014014D00007400F08430DE0FEF7A4
:10243000E1FA002801D10AE0104661684A08101844
:10244000FDF786FE80B2102802D32168C8600025FF
:1024500000206066A0662846B0BDC046F369FFEF65
:1024600000440040003801403010024000000000ED
:1024700004000000080000000200000000127A00C2
:10248000F0FF0000F0B585B0049317460D460446F2
:102490000168C8692840401B424242410020BA42BC
:1024A00045D102902046743001900A9E0120009090
:1024B000C0020390701C0FD0FEF73EF821680A6836
:1024C000002E12D0049BC01AB0420ED8500703D57C
:1024D000C869039A104217D1C8692840401B42427C
:1024E0004241BA42E6D0029821E00D2040018243E9
:1024F0000A608868009A904388602020A0670021C5
:10250000019A1170E06711E0039808620D20400104
:102510000A6882430A608868009A90438860202095
:10252000A067E0670021019A1170D060032005B018
:10253000F0BD000082B0FEF7D5F8FFF70CFDFFF705
:1025400079F9FFF761F9FFF7A9F9FFF7FBF9FFF751
:1025500049FAFFF7D1F92B48FFF74CF8FFF77FFA5C
:1025600020260196FFF75BFA0024204621462246EA
:10257000FFF724FB122001222146FFF71FFB242036
:1025800002222146FFF71AFB3620032721463A464E
:10259000FFF714FB482004222146FFF70FFB5A20C7
:1025A00005222146FFF70AFB6C20062521462A4614
:1025B000FFF704FB2046394613A2FFF79FFB204696
:1025C000294615A2FFF79AFB3F20294614A2FFF7E0
:1025D00095FBF2B230202946FFF714FB1020009043
:1025E000701CC1B27E29019E00D80646F2B2672057
:1025F00029463B46FFF73AFB7D20C000FDF7AEFEC3
:10260000B0E7C046C4020020312E3327204F4C458E
:10261000442054455354000041534349493A000073
:10262000434F44453A00000002E008C8121F08C1A9
:10263000002AFAD170477047002001E001C1121F43
:10264000002AFBD1704700000000000000000102DA
:10265000030406070809000000000102030400004B
:10266000000000000000000000000000000000006A
:1026700000F80000000000000033300000000010EF
:102680000C06100C0600000000000000000040C016
:102690007840C0784000043F04043F040400007008
:1026A00088FC08300000001820FF211E0000F00800
:1026B000F000E018000000211C031E211E0000F0A5
:1026C0000888700000001E212324192721101016ED
:1026D0000E000000000000000000000000000000EC
:1026E00000E018040200000000071820400000026B
:1026F0000418E000000000402018070000004040DF
:1027000080F0804040000202010F01020200000040
:1027100000F0000000000101011F010101000000A4
:1027200000000000000080B0700000000000000009
:102730000000000000000001010101010101000092
:102740000000000000000030300000000000000029
:10275000000080601804006018060100000000E01E
:1027600010080810E000000F102020100F000010CB
:1027700010F8000000000020203F20200000007022
:10278000080808887000003028242221300000301A
:102790000888884830000018202020110E00000012
:1027A000C02010F8000000070424243F240000F893
:1027B0000888880808000019212020110E0000E078
:1027C000108888180000000F112020110E0000381A
:1027D0000808C83808000000003F00000000007032
:1027E000880808887000001C222121221C0000E0BB
:1027F00010080810E0000000312222110F00000034
:1028000000C0C000000000000030300000000000E8
:102810000080000000000000806000000000000058
:1028200080402010080000010204081020004040F1
:102830004040404040000404040404040400000834
:1028400010204080000000201008040201000070E9
:1028500048080808F0000000003036010000C030D1
:10286000C828E810E0000718272423140B000000F4
:10287000C038E0000000203C23020227382008F87E
:10288000888888700000203F202020110E00C03072
:10289000080808083800071820202010080008F849
:1028A00008080810E000203F202020100F0008F842
:1028B0008888E8081000203F20202320180008F80E
:1028C0008888E8081000203F200003000000C03086
:1028D00008080838000007182020221E020008F807
:1028E00008000008F808203F210101213F200008CE
:1028F00008F8080800000020203F20200000000009
:102900000808F8080800C08080807F00000008F8F0
:1029100088C028180800203F20012638200008F829
:10292000080000000000203F20202020300008F890
:10293000F800F8F80800203F003F003F200008F8AA
:1029400030C00008F808203F200007183F00E010C2
:1029500008080810E0000F10202020100F0008F8D1
:1029600008080808F000203F210101010000E010E4
:1029700008080810E0000F18242438504F0008F809
:10298000888888887000203F2000030C3020007069
:102990008808080838000038202121221C00180867
:1029A00008F8080818000000203F2000000008F880
:1029B00008000008F808001F202020201F000878C9
:1029C000880000C83808000007380E010000F80829
:1029D00000F80008F800033C0700073C0300081853
:1029E00068808068180820302C03032C30200838B9
:1029F000C800C83808000000203F20000000100870
:102A00000808C838080020382621202018000000B7
:102A100000FE020202000000007F40404000000C67
:102A200030C000000000000000010638C0000002B5
:102A30000202FE000000004040407F000000000055
:102A40000402020204000000000000000000000078
:102A50000000000000008080808080808080000274
:102A60000204000000000000000000000000000060
:102A70008080808000000019242222223F2008F854
:102A8000008080000000003F112020110E00000097
:102A9000008080800000000E112020201100000026
:102AA00000808088F800000E112020103F200000D8
:102AB000808080800000001F2222222213000080DC
:102AC00080F0888888180020203F20200000000027
:102AD000808080808000006B94949493600008F85C
:102AE000008080800000203F210000203F200080E7
:102AF0009898000000000020203F202000000000E7
:102B000000809898000000C08080807F000008F856
:102B1000000080808000203F24022D30200000082B
:102B200008F8000000000020203F202000008080E6
:102B3000808080808000203F20003F20003F8080F8
:102B4000008080800000203F210000203F20000006
:102B5000808080800000001F202020201F008080B7
:102B600000808000000080FFA12020110E000000E6
:102B7000008080808000000E112020A0FF808080D7
:102B800080008080800020203F2120000100000084
:102B90008080808080000033242424241900008059
:102BA00080E0808000000000001F20200000808066
:102BB000000000808000001F202020103F20808027
:102BC00080000080808000010E30080601008080B7
:102BD0000080008080800F300C030C300F000080DC
:102BE0008000808080000020312E0E312000808007
:102BF00080000080808080818E7018060100008037
:102C00008080808080000021302C22213000000054
:102C10000000807C020200000000003F40400000F5
:102C20000000FF00000000000000FF0000000002A4
:102C3000027C800000000040403F000000000006D1
:102C40000101020204040000000000000000000076
:102C5000702C000800000020D0010000B401000822
:102C6000482D0008D0010020C805000038260008C3
:102C7000310C16F010101010FF10101010F00C1482
:102C80000F04040404FF040404040F001013404064
:102C9000405F555555755555555F4040400E1440A1
:102CA000200F094989790909090F20400E14FE02F5
:102CB000424ACA4A4ACA4A4A4202FE0E15FF4050D8
:102CC0004C4340404F50505C40FF0C16F8888888B9
:102CD00088FF88888888F80E121F080808087F88EF
:102CE0008888889F80F0001017808282828282828A
:102CF000E2A2928A86828080041940807F3A24244E
:102D0000A4FEA3220022CC0215FF25080601FF0B1A
:102D100012010404040404FF020202001012101045
:102D200010FF109008888888FF8888880800101392
:102D30000444827F01808040432C102846818045D6
:082D4000127A00018204000078
:04000005080000C12E
:00000001FF
